{"abi":[{"type":"constructor","inputs":[],"stateMutability":"nonpayable"},{"type":"function","name":"UPGRADE_INTERFACE_VERSION","inputs":[],"outputs":[{"name":"","type":"string","internalType":"string"}],"stateMutability":"view"},{"type":"function","name":"allowUser","inputs":[{"name":"_user","type":"address","internalType":"address"}],"outputs":[],"stateMutability":"nonpayable"},{"type":"function","name":"deposit","inputs":[{"name":"assets","type":"uint256","internalType":"uint256"},{"name":"receiver","type":"address","internalType":"address"}],"outputs":[{"name":"","type":"uint256","internalType":"uint256"}],"stateMutability":"nonpayable"},{"type":"function","name":"initialize","inputs":[{"name":"_owner","type":"address","internalType":"address"}],"outputs":[],"stateMutability":"nonpayable"},{"type":"function","name":"mint","inputs":[{"name":"shares","type":"uint256","internalType":"uint256"},{"name":"receiver","type":"address","internalType":"address"}],"outputs":[{"name":"","type":"uint256","internalType":"uint256"}],"stateMutability":"nonpayable"},{"type":"function","name":"owner","inputs":[],"outputs":[{"name":"","type":"address","internalType":"address"}],"stateMutability":"view"},{"type":"function","name":"proxiableUUID","inputs":[],"outputs":[{"name":"","type":"bytes32","internalType":"bytes32"}],"stateMutability":"view"},{"type":"function","name":"removeUser","inputs":[{"name":"_user","type":"address","internalType":"address"}],"outputs":[],"stateMutability":"nonpayable"},{"type":"function","name":"renounceOwnership","inputs":[],"outputs":[],"stateMutability":"nonpayable"},{"type":"function","name":"setConfig","inputs":[{"name":"_vault","type":"address","internalType":"address"},{"name":"_zkMe","type":"address","internalType":"address"},{"name":"_cooperator","type":"address","internalType":"address"}],"outputs":[],"stateMutability":"nonpayable"},{"type":"function","name":"transferOwnership","inputs":[{"name":"newOwner","type":"address","internalType":"address"}],"outputs":[],"stateMutability":"nonpayable"},{"type":"function","name":"upgradeToAndCall","inputs":[{"name":"newImplementation","type":"address","internalType":"address"},{"name":"data","type":"bytes","internalType":"bytes"}],"outputs":[],"stateMutability":"payable"},{"type":"function","name":"userAllowed","inputs":[{"name":"_user","type":"address","internalType":"address"}],"outputs":[{"name":"","type":"bool","internalType":"bool"}],"stateMutability":"view"},{"type":"event","name":"Initialized","inputs":[{"name":"version","type":"uint64","indexed":false,"internalType":"uint64"}],"anonymous":false},{"type":"event","name":"OwnershipTransferred","inputs":[{"name":"previousOwner","type":"address","indexed":true,"internalType":"address"},{"name":"newOwner","type":"address","indexed":true,"internalType":"address"}],"anonymous":false},{"type":"event","name":"Upgraded","inputs":[{"name":"implementation","type":"address","indexed":true,"internalType":"address"}],"anonymous":false},{"type":"error","name":"AddressEmptyCode","inputs":[{"name":"target","type":"address","internalType":"address"}]},{"type":"error","name":"ERC1967InvalidImplementation","inputs":[{"name":"implementation","type":"address","internalType":"address"}]},{"type":"error","name":"ERC1967NonPayable","inputs":[]},{"type":"error","name":"FailedCall","inputs":[]},{"type":"error","name":"InvalidInitialization","inputs":[]},{"type":"error","name":"KycFailed","inputs":[]},{"type":"error","name":"NotInitializing","inputs":[]},{"type":"error","name":"OwnableInvalidOwner","inputs":[{"name":"owner","type":"address","internalType":"address"}]},{"type":"error","name":"OwnableUnauthorizedAccount","inputs":[{"name":"account","type":"address","internalType":"address"}]},{"type":"error","name":"ReentrancyGuardReentrantCall","inputs":[]},{"type":"error","name":"SafeERC20FailedOperation","inputs":[{"name":"token","type":"address","internalType":"address"}]},{"type":"error","name":"UUPSUnauthorizedCallContext","inputs":[]},{"type":"error","name":"UUPSUnsupportedProxiableUUID","inputs":[{"name":"slot","type":"bytes32","internalType":"bytes32"}]}],"bytecode":{"object":"0x60a080604052346100c257306080525f5160206111df5f395f51905f525460ff8160401c166100b3576002600160401b03196001600160401b03821601610060575b60405161111890816100c7823960805181818161094c0152610a1c0152f35b6001600160401b0319166001600160401b039081175f5160206111df5f395f51905f525581527fc7f505b2f371ae2175ee4913f4499e1f2633a7b5936321eed1cdaeb6115181d290602090a15f80610041565b63f92ee8a960e01b5f5260045ffd5b5f80fdfe60806040526004361015610011575f80fd5b5f3560e01c80633141e25b14610bd15780634f1ef286146109a057806352d1902d1461093a5780636e553f6514610755578063715018a6146106ee578063771c456f1461069e5780638da5cb5b1461066a57806394bf804d1461033c57806398575188146102ef578063ac38709a146102a6578063ad3cb1cc14610248578063c4d66de8146100d75763f2fde38b146100a8575f80fd5b346100d35760203660031901126100d3576100d16100c4610d32565b6100cc610e39565b610dc8565b005b5f80fd5b346100d35760203660031901126100d3576100f0610d32565b5f5160206110c35f395f51905f525460ff8160401c16159167ffffffffffffffff821680159081610240575b6001149081610236575b15908161022d575b5061021e5767ffffffffffffffff1982166001175f5160206110c35f395f51905f525561016c91836101f2575b50610164610f79565b6100cc610f79565b610174610f79565b61017c610f79565b60015f5160206110a35f395f51905f5255610195610f79565b61019b57005b68ff0000000000000000195f5160206110c35f395f51905f5254165f5160206110c35f395f51905f52557fc7f505b2f371ae2175ee4913f4499e1f2633a7b5936321eed1cdaeb6115181d2602060405160018152a1005b68ffffffffffffffffff191668010000000000000001175f5160206110c35f395f51905f52558361015b565b63f92ee8a960e01b5f5260045ffd5b9050158461012e565b303b159150610126565b84915061011c565b346100d3575f3660031901126100d35760408051906102678183610d5e565b600582526020820191640352e302e360dc1b83528151928391602083525180918160208501528484015e5f828201840152601f01601f19168101030190f35b346100d35760203660031901126100d3576001600160a01b036102c7610d32565b165f525f5160206110435f395f51905f52602052602060ff60405f2054166040519015158152f35b346100d35760203660031901126100d357610308610d32565b610310610e39565b6001600160a01b03165f9081525f5160206110435f395f51905f5260205260409020805460ff19169055005b346100d35760403660031901126100d357600435610358610d48565b610360610e6c565b335f525f5160206110435f395f51905f5260205260ff60405f20541615806105c0575b6105b1575f5160206110835f395f51905f525460408051631702579560e21b8152600481018590529391849060249082906001600160a01b03165afa918215610545575f9261057b575b5f5160206110035f395f51905f525461045094506103f9908490309033906001600160a01b0316610ea4565b5f5160206110035f395f51905f52545f5160206110835f395f51905f525460405163095ea7b360e01b81526001600160a01b03918216600482015260248101869052956020928792169082905f9082906044820190565b03925af1918215610545576104b194602093610550575b505f5160206110835f395f51905f52546040516394bf804d60e01b815260048101929092526001600160a01b039283166024830152909485929091169082905f9082906044820190565b03925af1908115610545575f91610510575b6020925081156104e8575b5060015f5160206110a35f395f51905f5255604051908152f35b5f5160206110035f395f51905f525461050a91906001600160a01b0316610eef565b826104ce565b90506020823d60201161053d575b8161052b60209383610d5e565b810103126100d35760209151906104c3565b3d915061051e565b6040513d5f823e3d90fd5b61056f90843d8611610574575b6105678183610d5e565b810190610db0565b610467565b503d61055d565b91506040833d6040116105a9575b8161059660409383610d5e565b810103126100d3576104509251916103cd565b3d9150610589565b6376cc8d3760e01b5f5260045ffd5b507fc152e5a71b568a04d7b32079a68009d9daed5dc6d0ff6505f851b68b6352608a547fc152e5a71b568a04d7b32079a68009d9daed5dc6d0ff6505f851b68b6352608b5460405163032c91b160e31b81526001600160a01b0391821660048201523360248201529160209183916044918391165afa908115610545575f9161064b575b5015610383565b610664915060203d602011610574576105678183610d5e565b83610644565b346100d3575f3660031901126100d3575f5160206110235f395f51905f52546040516001600160a01b039091168152602090f35b346100d35760203660031901126100d3576106b7610d32565b6106bf610e39565b6001600160a01b03165f9081525f5160206110435f395f51905f5260205260409020805460ff19166001179055005b346100d3575f3660031901126100d357610706610e39565b5f5160206110235f395f51905f5280546001600160a01b031981169091555f906001600160a01b03167f8be0079c531659141344cd1fd0a4f28419497f9722a3daafe3b4186f6b6457e08280a3005b346100d35760403660031901126100d357600435610771610d48565b9061077a610e6c565b335f525f5160206110435f395f51905f5260205260ff60405f2054161580610890575b6105b1575f5160206110035f395f51905f52546107c8908290309033906001600160a01b0316610ea4565b5f5160206110035f395f51905f52545f5160206110835f395f51905f525460405163095ea7b360e01b81526001600160a01b0391821660048201526024810184905291602091839160449183915f91165af18015610545575f936020926104b192610875575b505f5160206110835f395f51905f5254604051636e553f6560e01b8152600481018690526001600160a01b0392831660248201529586939190921691839182906044820190565b61088b90843d8611610574576105678183610d5e565b61082e565b507fc152e5a71b568a04d7b32079a68009d9daed5dc6d0ff6505f851b68b6352608a547fc152e5a71b568a04d7b32079a68009d9daed5dc6d0ff6505f851b68b6352608b5460405163032c91b160e31b81526001600160a01b0391821660048201523360248201529160209183916044918391165afa908115610545575f9161091b575b501561079d565b610934915060203d602011610574576105678183610d5e565b83610914565b346100d3575f3660031901126100d3577f00000000000000000000000000000000000000000000000000000000000000006001600160a01b031630036109915760206040515f5160206110635f395f51905f528152f35b63703e46dd60e11b5f5260045ffd5b60403660031901126100d3576109b4610d32565b6024359067ffffffffffffffff82116100d357366023830112156100d3578160040135906109e182610d94565b916109ef6040519384610d5e565b808352602083019336602483830101116100d357815f926024602093018737840101526001600160a01b037f000000000000000000000000000000000000000000000000000000000000000016308114908115610baf575b5061099157610a54610e39565b6040516352d1902d60e01b81526001600160a01b0382169390602081600481885afa5f9181610b7b575b50610a965784634c9c8ce360e01b5f5260045260245ffd5b805f5160206110635f395f51905f52869203610b695750823b15610b57575f5160206110635f395f51905f5280546001600160a01b031916821790557fbc7cd75a20ee27fd9adebab32041f755214dbc6bffa90cc0225b39da2e5c2d3b5f80a2825115610b3e575f80916100d1945190845af43d15610b36573d91610b1a83610d94565b92610b286040519485610d5e565b83523d5f602085013e610fa4565b606091610fa4565b50505034610b4857005b63b398979f60e01b5f5260045ffd5b634c9c8ce360e01b5f5260045260245ffd5b632a87526960e21b5f5260045260245ffd5b9091506020813d602011610ba7575b81610b9760209383610d5e565b810103126100d357519086610a7e565b3d9150610b8a565b5f5160206110635f395f51905f52546001600160a01b03161415905084610a47565b346100d35760603660031901126100d357610bea610d32565b610bf2610d48565b6044356001600160a01b03811692908390036100d357610c10610e39565b5f5160206110835f395f51905f5280546001600160a01b03199081166001600160a01b039384169081179092557fc152e5a71b568a04d7b32079a68009d9daed5dc6d0ff6505f851b68b6352608a8054821694909316939093179091557fc152e5a71b568a04d7b32079a68009d9daed5dc6d0ff6505f851b68b6352608b80549092169290921790556040516338d52e0f60e01b815290602090829060049082905afa908115610545575f91610cf0575b505f5160206110035f395f51905f5280546001600160a01b0319166001600160a01b0392909216919091179055005b90506020813d602011610d2a575b81610d0b60209383610d5e565b810103126100d357516001600160a01b03811681036100d35781610cc1565b3d9150610cfe565b600435906001600160a01b03821682036100d357565b602435906001600160a01b03821682036100d357565b90601f8019910116810190811067ffffffffffffffff821117610d8057604052565b634e487b7160e01b5f52604160045260245ffd5b67ffffffffffffffff8111610d8057601f01601f191660200190565b908160209103126100d3575180151581036100d35790565b6001600160a01b03168015610e26575f5160206110235f395f51905f5280546001600160a01b0319811683179091556001600160a01b03167f8be0079c531659141344cd1fd0a4f28419497f9722a3daafe3b4186f6b6457e05f80a3565b631e4fbdf760e01b5f525f60045260245ffd5b5f5160206110235f395f51905f52546001600160a01b03163303610e5957565b63118cdaa760e01b5f523360045260245ffd5b60025f5160206110a35f395f51905f525414610e955760025f5160206110a35f395f51905f5255565b633ee5aeb560e01b5f5260045ffd5b6040516323b872dd60e01b60208201526001600160a01b039283166024820152929091166044830152606480830193909352918152610eed91610ee8608483610d5e565b610f21565b565b60405163a9059cbb60e01b6020820152336024820152604480820193909352918252610eed9190610ee8606483610d5e565b905f602091828151910182855af115610545575f513d610f7057506001600160a01b0381163b155b610f505750565b635274afe760e01b5f9081526001600160a01b0391909116600452602490fd5b60011415610f49565b60ff5f5160206110c35f395f51905f525460401c1615610f9557565b631afcd79f60e31b5f5260045ffd5b90610fc85750805115610fb957805190602001fd5b63d6bda27560e01b5f5260045ffd5b81511580610ff9575b610fd9575090565b639996b31560e01b5f9081526001600160a01b0391909116600452602490fd5b50803b15610fd156fec152e5a71b568a04d7b32079a68009d9daed5dc6d0ff6505f851b68b6352608c9016d09d72d40fdae2fd8ceac6b6234c7706214fd39c1cd1e609a0528c1993009f9702eae2e04bd68c59413adb0e3b63f639d94e80b3b11a7f6678c38c2aeff2360894a13ba1a3210667c828492db98dca3e2076cc3735a920a3ca505d382bbcc152e5a71b568a04d7b32079a68009d9daed5dc6d0ff6505f851b68b635260899b779b17422d0df92223018b32b4d1fa46e071723d6817e2486d003becc55f00f0c57e16840df040f15088dc2f81fe391c3923bec73e23a9662efc9c229c6a00a26469706673582212207bc40a8da245087edbde7da57de739e61412259b8eddea7ff4c0832f3d69898a64736f6c634300081e0033f0c57e16840df040f15088dc2f81fe391c3923bec73e23a9662efc9c229c6a00","linkReferences":{}},"methodIdentifiers":{"UPGRADE_INTERFACE_VERSION()":"ad3cb1cc","allowUser(address)":"771c456f","deposit(uint256,address)":"6e553f65","initialize(address)":"c4d66de8","mint(uint256,address)":"94bf804d","owner()":"8da5cb5b","proxiableUUID()":"52d1902d","removeUser(address)":"98575188","renounceOwnership()":"715018a6","setConfig(address,address,address)":"3141e25b","transferOwnership(address)":"f2fde38b","upgradeToAndCall(address,bytes)":"4f1ef286","userAllowed(address)":"ac38709a"},"id":67}