{"abi":[{"type":"constructor","inputs":[],"stateMutability":"nonpayable"},{"type":"fallback","stateMutability":"nonpayable"},{"type":"function","name":"UPGRADE_INTERFACE_VERSION","inputs":[],"outputs":[{"name":"","type":"string","internalType":"string"}],"stateMutability":"view"},{"type":"function","name":"allowance","inputs":[{"name":"owner","type":"address","internalType":"address"},{"name":"spender","type":"address","internalType":"address"}],"outputs":[{"name":"","type":"uint256","internalType":"uint256"}],"stateMutability":"view"},{"type":"function","name":"approve","inputs":[{"name":"spender","type":"address","internalType":"address"},{"name":"value","type":"uint256","internalType":"uint256"}],"outputs":[{"name":"","type":"bool","internalType":"bool"}],"stateMutability":"nonpayable"},{"type":"function","name":"asset","inputs":[],"outputs":[{"name":"","type":"address","internalType":"address"}],"stateMutability":"view"},{"type":"function","name":"balanceOf","inputs":[{"name":"account","type":"address","internalType":"address"}],"outputs":[{"name":"","type":"uint256","internalType":"uint256"}],"stateMutability":"view"},{"type":"function","name":"calculateDepositFee","inputs":[{"name":"assets","type":"uint256","internalType":"uint256"}],"outputs":[{"name":"","type":"uint256","internalType":"uint256"}],"stateMutability":"view"},{"type":"function","name":"calculateMintFee","inputs":[{"name":"shares","type":"uint256","internalType":"uint256"}],"outputs":[{"name":"","type":"uint256","internalType":"uint256"},{"name":"","type":"uint256","internalType":"uint256"}],"stateMutability":"view"},{"type":"function","name":"calculateWithdrawalFee","inputs":[{"name":"assets","type":"uint256","internalType":"uint256"}],"outputs":[{"name":"","type":"uint256","internalType":"uint256"}],"stateMutability":"view"},{"type":"function","name":"config","inputs":[],"outputs":[{"name":"depositAccount","type":"address","internalType":"contract BaseAccount"},{"name":"strategist","type":"address","internalType":"address"},{"name":"depositFeeBps","type":"uint32","internalType":"uint32"},{"name":"withdrawFeeBps","type":"uint32","internalType":"uint32"},{"name":"maxRateIncrementBps","type":"uint32","internalType":"uint32"},{"name":"maxRateDecrementBps","type":"uint32","internalType":"uint32"},{"name":"minRateUpdateDelay","type":"uint64","internalType":"uint64"},{"name":"maxRateUpdateDelay","type":"uint64","internalType":"uint64"},{"name":"depositCap","type":"uint256","internalType":"uint256"},{"name":"feeDistribution","type":"tuple","internalType":"struct KYCOneWayVault.FeeDistributionConfig","components":[{"name":"strategistAccount","type":"address","internalType":"address"},{"name":"platformAccount","type":"address","internalType":"address"},{"name":"strategistRatioBps","type":"uint32","internalType":"uint32"}]}],"stateMutability":"view"},{"type":"function","name":"convertToAssets","inputs":[{"name":"shares","type":"uint256","internalType":"uint256"}],"outputs":[{"name":"","type":"uint256","internalType":"uint256"}],"stateMutability":"view"},{"type":"function","name":"convertToShares","inputs":[{"name":"assets","type":"uint256","internalType":"uint256"}],"outputs":[{"name":"","type":"uint256","internalType":"uint256"}],"stateMutability":"view"},{"type":"function","name":"currentWithdrawRequestId","inputs":[],"outputs":[{"name":"","type":"uint64","internalType":"uint64"}],"stateMutability":"view"},{"type":"function","name":"decimals","inputs":[],"outputs":[{"name":"","type":"uint8","internalType":"uint8"}],"stateMutability":"view"},{"type":"function","name":"deposit","inputs":[{"name":"assets","type":"uint256","internalType":"uint256"},{"name":"receiver","type":"address","internalType":"address"}],"outputs":[{"name":"","type":"uint256","internalType":"uint256"}],"stateMutability":"nonpayable"},{"type":"function","name":"feesAccruedInAsset","inputs":[],"outputs":[{"name":"","type":"uint256","internalType":"uint256"}],"stateMutability":"view"},{"type":"function","name":"initialize","inputs":[{"name":"_owner","type":"address","internalType":"address"},{"name":"_config","type":"bytes","internalType":"bytes"},{"name":"underlying","type":"address","internalType":"address"},{"name":"vaultTokenName","type":"string","internalType":"string"},{"name":"vaultTokenSymbol","type":"string","internalType":"string"},{"name":"startingRate","type":"uint256","internalType":"uint256"},{"name":"wrapper","type":"address","internalType":"address"}],"outputs":[],"stateMutability":"nonpayable"},{"type":"function","name":"lastRateUpdateTimestamp","inputs":[],"outputs":[{"name":"","type":"uint64","internalType":"uint64"}],"stateMutability":"view"},{"type":"function","name":"maxDeposit","inputs":[{"name":"","type":"address","internalType":"address"}],"outputs":[{"name":"","type":"uint256","internalType":"uint256"}],"stateMutability":"view"},{"type":"function","name":"maxMint","inputs":[{"name":"","type":"address","internalType":"address"}],"outputs":[{"name":"","type":"uint256","internalType":"uint256"}],"stateMutability":"view"},{"type":"function","name":"maxRedeem","inputs":[{"name":"owner","type":"address","internalType":"address"}],"outputs":[{"name":"","type":"uint256","internalType":"uint256"}],"stateMutability":"view"},{"type":"function","name":"maxWithdraw","inputs":[{"name":"owner","type":"address","internalType":"address"}],"outputs":[{"name":"","type":"uint256","internalType":"uint256"}],"stateMutability":"view"},{"type":"function","name":"mint","inputs":[{"name":"shares","type":"uint256","internalType":"uint256"},{"name":"receiver","type":"address","internalType":"address"}],"outputs":[{"name":"","type":"uint256","internalType":"uint256"}],"stateMutability":"nonpayable"},{"type":"function","name":"name","inputs":[],"outputs":[{"name":"","type":"string","internalType":"string"}],"stateMutability":"view"},{"type":"function","name":"owner","inputs":[],"outputs":[{"name":"","type":"address","internalType":"address"}],"stateMutability":"view"},{"type":"function","name":"pause","inputs":[],"outputs":[],"stateMutability":"nonpayable"},{"type":"function","name":"previewDeposit","inputs":[{"name":"assets","type":"uint256","internalType":"uint256"}],"outputs":[{"name":"","type":"uint256","internalType":"uint256"}],"stateMutability":"view"},{"type":"function","name":"previewMint","inputs":[{"name":"shares","type":"uint256","internalType":"uint256"}],"outputs":[{"name":"","type":"uint256","internalType":"uint256"}],"stateMutability":"view"},{"type":"function","name":"previewRedeem","inputs":[{"name":"shares","type":"uint256","internalType":"uint256"}],"outputs":[{"name":"","type":"uint256","internalType":"uint256"}],"stateMutability":"view"},{"type":"function","name":"previewWithdraw","inputs":[{"name":"assets","type":"uint256","internalType":"uint256"}],"outputs":[{"name":"","type":"uint256","internalType":"uint256"}],"stateMutability":"view"},{"type":"function","name":"proxiableUUID","inputs":[],"outputs":[{"name":"","type":"bytes32","internalType":"bytes32"}],"stateMutability":"view"},{"type":"function","name":"redeem","inputs":[{"name":"shares","type":"uint256","internalType":"uint256"},{"name":"receiver","type":"string","internalType":"string"},{"name":"owner","type":"address","internalType":"address"}],"outputs":[],"stateMutability":"nonpayable"},{"type":"function","name":"redeem","inputs":[{"name":"shares","type":"uint256","internalType":"uint256"},{"name":"receiver","type":"address","internalType":"address"},{"name":"owner","type":"address","internalType":"address"}],"outputs":[{"name":"","type":"uint256","internalType":"uint256"}],"stateMutability":"nonpayable"},{"type":"function","name":"redemptionRate","inputs":[],"outputs":[{"name":"","type":"uint256","internalType":"uint256"}],"stateMutability":"view"},{"type":"function","name":"renounceOwnership","inputs":[],"outputs":[],"stateMutability":"nonpayable"},{"type":"function","name":"symbol","inputs":[],"outputs":[{"name":"","type":"string","internalType":"string"}],"stateMutability":"view"},{"type":"function","name":"totalAssets","inputs":[],"outputs":[{"name":"","type":"uint256","internalType":"uint256"}],"stateMutability":"view"},{"type":"function","name":"totalSupply","inputs":[],"outputs":[{"name":"","type":"uint256","internalType":"uint256"}],"stateMutability":"view"},{"type":"function","name":"transfer","inputs":[{"name":"to","type":"address","internalType":"address"},{"name":"value","type":"uint256","internalType":"uint256"}],"outputs":[{"name":"","type":"bool","internalType":"bool"}],"stateMutability":"nonpayable"},{"type":"function","name":"transferFrom","inputs":[{"name":"from","type":"address","internalType":"address"},{"name":"to","type":"address","internalType":"address"},{"name":"value","type":"uint256","internalType":"uint256"}],"outputs":[{"name":"","type":"bool","internalType":"bool"}],"stateMutability":"nonpayable"},{"type":"function","name":"transferOwnership","inputs":[{"name":"newOwner","type":"address","internalType":"address"}],"outputs":[],"stateMutability":"nonpayable"},{"type":"function","name":"unpause","inputs":[],"outputs":[],"stateMutability":"nonpayable"},{"type":"function","name":"update","inputs":[{"name":"newRate","type":"uint256","internalType":"uint256"}],"outputs":[],"stateMutability":"nonpayable"},{"type":"function","name":"updateConfig","inputs":[{"name":"_config","type":"bytes","internalType":"bytes"}],"outputs":[],"stateMutability":"nonpayable"},{"type":"function","name":"updateWrapper","inputs":[{"name":"_newWrapper","type":"address","internalType":"address"}],"outputs":[],"stateMutability":"nonpayable"},{"type":"function","name":"upgradeToAndCall","inputs":[{"name":"newImplementation","type":"address","internalType":"address"},{"name":"data","type":"bytes","internalType":"bytes"}],"outputs":[],"stateMutability":"payable"},{"type":"function","name":"vaultState","inputs":[],"outputs":[{"name":"paused","type":"bool","internalType":"bool"},{"name":"pausedByOwner","type":"bool","internalType":"bool"},{"name":"pausedByStaleRate","type":"bool","internalType":"bool"}],"stateMutability":"view"},{"type":"function","name":"withdraw","inputs":[{"name":"assets","type":"uint256","internalType":"uint256"},{"name":"receiver","type":"string","internalType":"string"},{"name":"owner","type":"address","internalType":"address"}],"outputs":[],"stateMutability":"nonpayable"},{"type":"function","name":"withdraw","inputs":[{"name":"assets","type":"uint256","internalType":"uint256"},{"name":"receiver","type":"address","internalType":"address"},{"name":"owner","type":"address","internalType":"address"}],"outputs":[{"name":"","type":"uint256","internalType":"uint256"}],"stateMutability":"nonpayable"},{"type":"function","name":"withdrawRequests","inputs":[{"name":"","type":"uint64","internalType":"uint64"}],"outputs":[{"name":"id","type":"uint64","internalType":"uint64"},{"name":"owner","type":"address","internalType":"address"},{"name":"redemptionRate","type":"uint256","internalType":"uint256"},{"name":"sharesAmount","type":"uint256","internalType":"uint256"},{"name":"receiver","type":"string","internalType":"string"}],"stateMutability":"view"},{"type":"event","name":"Approval","inputs":[{"name":"owner","type":"address","indexed":true,"internalType":"address"},{"name":"spender","type":"address","indexed":true,"internalType":"address"},{"name":"value","type":"uint256","indexed":false,"internalType":"uint256"}],"anonymous":false},{"type":"event","name":"ConfigUpdated","inputs":[{"name":"updater","type":"address","indexed":true,"internalType":"address"},{"name":"newConfig","type":"tuple","indexed":false,"internalType":"struct KYCOneWayVault.KYCOneWayVaultConfig","components":[{"name":"depositAccount","type":"address","internalType":"contract BaseAccount"},{"name":"strategist","type":"address","internalType":"address"},{"name":"depositFeeBps","type":"uint32","internalType":"uint32"},{"name":"withdrawFeeBps","type":"uint32","internalType":"uint32"},{"name":"maxRateIncrementBps","type":"uint32","internalType":"uint32"},{"name":"maxRateDecrementBps","type":"uint32","internalType":"uint32"},{"name":"minRateUpdateDelay","type":"uint64","internalType":"uint64"},{"name":"maxRateUpdateDelay","type":"uint64","internalType":"uint64"},{"name":"depositCap","type":"uint256","internalType":"uint256"},{"name":"feeDistribution","type":"tuple","internalType":"struct KYCOneWayVault.FeeDistributionConfig","components":[{"name":"strategistAccount","type":"address","internalType":"address"},{"name":"platformAccount","type":"address","internalType":"address"},{"name":"strategistRatioBps","type":"uint32","internalType":"uint32"}]}]}],"anonymous":false},{"type":"event","name":"Deposit","inputs":[{"name":"sender","type":"address","indexed":true,"internalType":"address"},{"name":"owner","type":"address","indexed":true,"internalType":"address"},{"name":"assets","type":"uint256","indexed":false,"internalType":"uint256"},{"name":"shares","type":"uint256","indexed":false,"internalType":"uint256"}],"anonymous":false},{"type":"event","name":"FeesDistributed","inputs":[{"name":"strategistAccount","type":"address","indexed":true,"internalType":"address"},{"name":"platformAccount","type":"address","indexed":true,"internalType":"address"},{"name":"strategistShares","type":"uint256","indexed":false,"internalType":"uint256"},{"name":"platformShares","type":"uint256","indexed":false,"internalType":"uint256"}],"anonymous":false},{"type":"event","name":"Initialized","inputs":[{"name":"version","type":"uint64","indexed":false,"internalType":"uint64"}],"anonymous":false},{"type":"event","name":"OwnershipTransferred","inputs":[{"name":"previousOwner","type":"address","indexed":true,"internalType":"address"},{"name":"newOwner","type":"address","indexed":true,"internalType":"address"}],"anonymous":false},{"type":"event","name":"PausedStateChanged","inputs":[{"name":"paused","type":"bool","indexed":false,"internalType":"bool"}],"anonymous":false},{"type":"event","name":"RateUpdated","inputs":[{"name":"newRate","type":"uint256","indexed":false,"internalType":"uint256"}],"anonymous":false},{"type":"event","name":"StaleRatePaused","inputs":[{"name":"lastUpdateTimestamp","type":"uint64","indexed":false,"internalType":"uint64"},{"name":"currentTimestamp","type":"uint64","indexed":false,"internalType":"uint64"}],"anonymous":false},{"type":"event","name":"Transfer","inputs":[{"name":"from","type":"address","indexed":true,"internalType":"address"},{"name":"to","type":"address","indexed":true,"internalType":"address"},{"name":"value","type":"uint256","indexed":false,"internalType":"uint256"}],"anonymous":false},{"type":"event","name":"Upgraded","inputs":[{"name":"implementation","type":"address","indexed":true,"internalType":"address"}],"anonymous":false},{"type":"event","name":"Withdraw","inputs":[{"name":"sender","type":"address","indexed":true,"internalType":"address"},{"name":"receiver","type":"address","indexed":true,"internalType":"address"},{"name":"owner","type":"address","indexed":true,"internalType":"address"},{"name":"assets","type":"uint256","indexed":false,"internalType":"uint256"},{"name":"shares","type":"uint256","indexed":false,"internalType":"uint256"}],"anonymous":false},{"type":"event","name":"WithdrawRequested","inputs":[{"name":"id","type":"uint64","indexed":true,"internalType":"uint64"},{"name":"owner","type":"address","indexed":false,"internalType":"address"},{"name":"receiver","type":"string","indexed":false,"internalType":"string"},{"name":"shares","type":"uint256","indexed":false,"internalType":"uint256"}],"anonymous":false},{"type":"error","name":"AddressEmptyCode","inputs":[{"name":"target","type":"address","internalType":"address"}]},{"type":"error","name":"ERC1967InvalidImplementation","inputs":[{"name":"implementation","type":"address","internalType":"address"}]},{"type":"error","name":"ERC1967NonPayable","inputs":[]},{"type":"error","name":"ERC20InsufficientAllowance","inputs":[{"name":"spender","type":"address","internalType":"address"},{"name":"allowance","type":"uint256","internalType":"uint256"},{"name":"needed","type":"uint256","internalType":"uint256"}]},{"type":"error","name":"ERC20InsufficientBalance","inputs":[{"name":"sender","type":"address","internalType":"address"},{"name":"balance","type":"uint256","internalType":"uint256"},{"name":"needed","type":"uint256","internalType":"uint256"}]},{"type":"error","name":"ERC20InvalidApprover","inputs":[{"name":"approver","type":"address","internalType":"address"}]},{"type":"error","name":"ERC20InvalidReceiver","inputs":[{"name":"receiver","type":"address","internalType":"address"}]},{"type":"error","name":"ERC20InvalidSender","inputs":[{"name":"sender","type":"address","internalType":"address"}]},{"type":"error","name":"ERC20InvalidSpender","inputs":[{"name":"spender","type":"address","internalType":"address"}]},{"type":"error","name":"ERC4626ExceededMaxDeposit","inputs":[{"name":"receiver","type":"address","internalType":"address"},{"name":"assets","type":"uint256","internalType":"uint256"},{"name":"max","type":"uint256","internalType":"uint256"}]},{"type":"error","name":"ERC4626ExceededMaxMint","inputs":[{"name":"receiver","type":"address","internalType":"address"},{"name":"shares","type":"uint256","internalType":"uint256"},{"name":"max","type":"uint256","internalType":"uint256"}]},{"type":"error","name":"ERC4626ExceededMaxRedeem","inputs":[{"name":"owner","type":"address","internalType":"address"},{"name":"shares","type":"uint256","internalType":"uint256"},{"name":"max","type":"uint256","internalType":"uint256"}]},{"type":"error","name":"ERC4626ExceededMaxWithdraw","inputs":[{"name":"owner","type":"address","internalType":"address"},{"name":"assets","type":"uint256","internalType":"uint256"},{"name":"max","type":"uint256","internalType":"uint256"}]},{"type":"error","name":"FailedCall","inputs":[]},{"type":"error","name":"InvalidInitialization","inputs":[]},{"type":"error","name":"NotInitializing","inputs":[]},{"type":"error","name":"OwnableInvalidOwner","inputs":[{"name":"owner","type":"address","internalType":"address"}]},{"type":"error","name":"OwnableUnauthorizedAccount","inputs":[{"name":"account","type":"address","internalType":"address"}]},{"type":"error","name":"ReentrancyGuardReentrantCall","inputs":[]},{"type":"error","name":"SafeERC20FailedOperation","inputs":[{"name":"token","type":"address","internalType":"address"}]},{"type":"error","name":"UUPSUnauthorizedCallContext","inputs":[]},{"type":"error","name":"UUPSUnsupportedProxiableUUID","inputs":[{"name":"slot","type":"bytes32","internalType":"bytes32"}]}],"bytecode":{"object":"0x60a080604052346100c257306080525f516020613cbd5f395f51905f525460ff8160401c166100b3576002600160401b03196001600160401b03821601610060575b604051613bf690816100c7823960805181818161122201526112b30152f35b6001600160401b0319166001600160401b039081175f516020613cbd5f395f51905f525581527fc7f505b2f371ae2175ee4913f4499e1f2633a7b5936321eed1cdaeb6115181d290602090a15f80610041565b63f92ee8a960e01b5f5260045ffd5b5f80fdfe60806040526004361015610051575b3461004d5760405162461bcd60e51b8152602060048201526012602482015271119d5b98dd1a5bdb881b9bdd08199bdd5b9960721b6044820152606490fd5b5f80fd5b5f3560e01c806301e1d1141461211957806306fdde031461205c57806307a2d13a14611443578063095ea7b314611fb75780630a28a47714611f9257806318160ddd14611f6957806318e1b3bb14611f4b57806318fe961b14611f225780631bd9c31a14611ed857806323b872dd14611ea0578063247d284b14611e825780632728f33314611e465780632f855eec146116e9578063313ce567146116c457806338d52e0f146116905780633f4ba83a1461146c578063402d267d146114485780634cdad506146114435780634f1ef2861461127657806352d1902d14611210578063540385a3146111f35780635c095e54146111c95780636e553f651461113657806370a08231146102e7578063715018a6146110cf57806379502c5514610fcd57806382ab890a14610c5c5780638456cb5914610ae35780638cc6acce1461087d5780638da5cb5b1461084957806394ba2b8d1461072157806394bf804d146106cf57806395d89b41146105d957806399646d1c146105655780639a2a42b814610516578063a9059cbb146104e5578063ad3cb1cc1461049a578063b3d7f6b914610475578063b460af9414610413578063ba0876521461039c578063c63d75b614610378578063c6e6f5921461029b578063cd1da35c1461035b578063ce96cb7714610338578063d083b2ee14610312578063d905777e146102e7578063dd62ed3e146102a0578063ef8b30f71461029b5763f2fde38b0361000e573461004d57602036600319011261004d5761029961028c612185565b610294613545565b6129d2565b005b612350565b3461004d57604036600319011261004d576102b9612185565b6102ca6102c461219b565b91612808565b9060018060a01b03165f52602052602060405f2054604051908152f35b3461004d57602036600319011261004d57602061030a610305612185565b612840565b604051908152f35b3461004d575f36600319011261004d5760206001600160401b0360085416604051908152f35b3461004d57602036600319011261004d57602061030a610356612185565b6129a3565b3461004d575f36600319011261004d576020600954604051908152f35b3461004d57602036600319011261004d57610391612185565b50602061030a612970565b3461004d576103aa36612316565b6103b681939293612840565b8083116103f157506103ce600654600b549084613714565b918261030a926020953361365b565b634e487b7160e01b5f52601160045260245ffd5b9250632e52afbb60e21b5f5260018060a01b031660045260245260445260645ffd5b3461004d5761042136612316565b909161042c826129a3565b808211610454575060209261030a9161044b600b546006549083612a43565b9384923361365b565b91633fa733bb60e21b5f5260018060a01b031660045260245260445260645ffd5b3461004d57602036600319011261004d57602061030a600654600b5490600435612a43565b3461004d575f36600319011261004d576104e16040516104bb60408261224e565b60058152640352e302e360dc1b6020820152604051918291602083526020830190612133565b0390f35b3461004d57604036600319011261004d5761050b610501612185565b6024359033612fa3565b602060405160018152f35b3461004d57602036600319011261004d5761052f612185565b610537613545565b5f516020613b815f395f51905f5280546001600160a01b0319166001600160a01b0392909216919091179055005b3461004d57610573366121b1565b9161057c612a7f565b60ff600754166105a25761058f936128e8565b60015f516020613b615f395f51905f5255005b60405162461bcd60e51b815260206004820152600f60248201526e15985d5b1d081a5cc81c185d5cd959608a1b6044820152606490fd5b3461004d575f36600319011261004d576040515f5f516020613ac15f395f51905f5254610605816122de565b80845290600181169081156106ab5750600114610641575b6104e18361062d8185038261224e565b604051918291602083526020830190612133565b5f516020613ac15f395f51905f525f9081527f46a2803e59a4de4e7a4c574b1243f25977ac4c77d5a1a4a609b5394cebb4a2aa939250905b8082106106915750909150810160200161062d61061d565b919260018160209254838588010152019101909291610679565b60ff191660208086019190915291151560051b8401909101915061062d905061061d565b3461004d57604036600319011261004d576106e861219b565b60ff600754166105a257610708602091610700612a7f565b600435612879565b60015f516020613b615f395f51905f5255604051908152f35b3461004d57602036600319011261004d576004356001600160401b03811680910361004d575f52600a60205260405f20805460018201549160036002820154910190604051915f90805490610775826122de565b808652916001811690811561082257506001146107de575b5050906107a0836104e19493038361224e565b60405194846001600160401b03879616865260018060a01b039060401c1660208601526040850152606084015260a0608084015260a0830190612133565b5f9081526020812094939250905b80821061080657509192509082016020016107a08361078d565b91929360018160209254838589010152019101909392916107ec565b60ff191660208088019190915292151560051b860190920192506107a0915084905061078d565b3461004d575f36600319011261004d575f516020613ae15f395f51905f52546040516001600160a01b039091168152602090f35b3461004d57602036600319011261004d576004356001600160401b03811161004d576108ad9036906004016122c0565b6108b5613545565b8051810160200190602001906108ca916124d4565b6108d381613087565b80515f80546001600160a01b03199081166001600160a01b03938416908117909255602084018051600180549093169416939093179055916040810180516001805463ffffffff60a01b191660a09290921b63ffffffff60a01b169190911790556060820190815160015490608085019163ffffffff60e01b835160e01b169163ffffffff60c01b9060c01b1690600160c01b6001900316171760015560a0840190815163ffffffff16936002549360c0870194855160201b6bffffffffffffffff000000001660e08901976001600160401b0360601b895160601b16926001600160601b0360a01b16171717600255610100870196875160035561012001978851600160a01b60019003815116610a029060018060a01b03166001600160601b0360a01b6004541617600455565b6020818101516005805460409485015163ffffffff60a01b60a091821b166001600160c01b03199092166001600160a01b03948516179190911790915583519d8e52935181168d830152935163ffffffff9081168d8401529451851660608d01529451841660808c015294518316908a015293516001600160401b0390811660c08a0152945190941660e0880152935161010087015293518051821661012087015292830151166101408501529101511661016082015233906101807f97d5cdf1d286faa22a5af584c7c53242d22dae02f82c8d38e19c5ae38ffcfe6c91a2005b3461004d575f36600319011261004d575f516020613ae15f395f51905f52546001600160a01b03163314801580610c47575b610c025760ff60075416610bbd57604051610b2f81612217565b6001602082019160408101935f85525f14610bb5578183525b52600160ff19600754161760075551151561ff006007549160081b169061ff0019161760075551151562ff00006007549160101b169062ff00001916176007557f9e3a5e37224532dea67b89face185703738a228a6e8a23dee546960180d3be64602060405160018152a1005b5f8352610b48565b60405162461bcd60e51b815260206004820152601760248201527f5661756c7420697320616c7265616479207061757365640000000000000000006044820152606490fd5b60405162461bcd60e51b815260206004820181905260248201527f4f6e6c79206f776e6572206f72207374726174656769737420616c6c6f7765646044820152606490fd5b506001546001600160a01b0316331415610b15565b3461004d57602036600319011261004d57600154600435906001600160a01b0381163303610f885760075460ff81169081610f79575b50610f25578115610ee057610ca56125d9565b90610cc76001600160401b0360085460401c166001600160401b0342166126bb565b6001600160401b038060c085015116911610610e8f576006549081841115610dcd57612710610cfc610d049260e01c84612866565b0491846123b2565b11610d70577fe65c987b2e4668e09ba867026921588005b2b2063607a1e7e7d91683c8f91b7b91610d3c6101206020935b0151613578565b8060065560085467ffffffffffffffff60401b4260401b169067ffffffffffffffff60401b191617600855604051908152a1005b60405162461bcd60e51b815260206004820152602f60248201527f5261746520696e6372656173652065786365656473206d6178696d756d20616c60448201526e1b1bddd959081a5b98dc995b595b9d608a1b6064820152608490fd5b50808310610e07575b507fe65c987b2e4668e09ba867026921588005b2b2063607a1e7e7d91683c8f91b7b91610d3c610120602093610d35565b610e2783612710610e2063ffffffff6002541685612866565b04926123b2565b11610e325782610dd6565b60405162461bcd60e51b815260206004820152602f60248201527f526174652064656372656173652065786365656473206d6178696d756d20616c60448201526e1b1bddd95908191958dc995b595b9d608a1b6064820152608490fd5b60405162461bcd60e51b8152602060048201526024808201527f4d696e696d756d2072617465207570646174652064656c6179206e6f742070616044820152631cdcd95960e21b6064820152608490fd5b60405162461bcd60e51b815260206004820152601e60248201527f526564656d7074696f6e20726174652063616e6e6f74206265207a65726f00006044820152606490fd5b60405162461bcd60e51b815260206004820152602660248201527f5661756c7420697320706175736564206279206f776e6572206f7220737472616044820152651d1959da5cdd60d21b6064820152608490fd5b60ff915060101c161583610c92565b60405162461bcd60e51b815260206004820152601760248201527f4f6e6c79207374726174656769737420616c6c6f7765640000000000000000006044820152606490fd5b3461004d575f36600319011261004d5761018060018060a01b035f54166110cd6001546002546001600160401b03600354916040519361100c85612217565b60018060a01b0360045416855263ffffffff60055460018060a01b038116602088015260a01c16604086015260405196875260018060a01b038116602088015263ffffffff8160a01c16604088015263ffffffff8160c01c16606088015260e01c608087015263ffffffff811660a0870152818160201c1660c087015260601c1660e085015261010084015261012083019063ffffffff6040809260018060a01b03815116855260018060a01b036020820151166020860152015116910152565bf35b3461004d575f36600319011261004d576110e7613545565b5f516020613ae15f395f51905f5280546001600160a01b031981169091555f906001600160a01b03167f8be0079c531659141344cd1fd0a4f28419497f9722a3daafe3b4186f6b6457e08280a3005b3461004d57604036600319011261004d5761114f61219b565b5f516020613b815f395f51905f52546001600160a01b0316330361118d5760ff600754166105a257610708602091611185612a7f565b60043561277f565b60405162461bcd60e51b815260206004820152601460248201527313db9b1e481ddc985c1c195c88185b1b1bddd95960621b6044820152606490fd5b3461004d57602036600319011261004d5760406111e7600435612703565b82519182526020820152f35b3461004d575f36600319011261004d576020600654604051908152f35b3461004d575f36600319011261004d577f00000000000000000000000000000000000000000000000000000000000000006001600160a01b031630036112675760206040515f516020613b215f395f51905f528152f35b63703e46dd60e11b5f5260045ffd5b604036600319011261004d5761128a612185565b6024356001600160401b03811161004d576112a99036906004016122c0565b6001600160a01b037f000000000000000000000000000000000000000000000000000000000000000016308114908115611421575b50611267576112eb613545565b6040516352d1902d60e01b81526001600160a01b0383169290602081600481875afa5f91816113ed575b5061132d5783634c9c8ce360e01b5f5260045260245ffd5b805f516020613b215f395f51905f528592036113db5750813b156113c9575f516020613b215f395f51905f5280546001600160a01b031916821790557fbc7cd75a20ee27fd9adebab32041f755214dbc6bffa90cc0225b39da2e5c2d3b5f80a28151156113b1575f8083602061029995519101845af46113ab613915565b91613a22565b5050346113ba57005b63b398979f60e01b5f5260045ffd5b634c9c8ce360e01b5f5260045260245ffd5b632a87526960e21b5f5260045260245ffd5b9091506020813d602011611419575b816114096020938361224e565b8101031261004d57519085611315565b3d91506113fc565b5f516020613b215f395f51905f52546001600160a01b031614159050836112de565b612157565b3461004d57602036600319011261004d57611461612185565b50602061030a6126db565b3461004d575f36600319011261004d575f516020613ae15f395f51905f52546001600160a01b0316331415808061167b575b610c0257604051906114af82612217565b6007549160ff83161515815260ff6040818560081c16151592836020820152019360101c161515835280611674575b61161d57815115159081611615575b506115b9575115158061157f575b61152f575f6007557f9e3a5e37224532dea67b89face185703738a228a6e8a23dee546960180d3be6460206040515f8152a1005b60405162461bcd60e51b815260206004820152602260248201527f43616e6e6f7420756e7061757365207768696c652072617465206973207374616044820152616c6560f01b6064820152608490fd5b506115a16001600160401b0360085460401c166001600160401b0342166126bb565b6001600160401b038060025460601c169116116114fb565b60405162461bcd60e51b815260206004820152602e60248201527f4f6e6c79206f776e65722063616e20756e70617573652069662070617573656460448201526d206279207374616c65207261746560901b6064820152608490fd5b9050826114ed565b60405162461bcd60e51b815260206004820152602960248201527f4f6e6c79206f776e65722063616e20756e70617573652069662070617573656460448201526810313c9037bbb732b960b91b6064820152608490fd5b50806114de565b506001546001600160a01b031633141561149e565b3461004d575f36600319011261004d575f516020613b415f395f51905f52546040516001600160a01b039091168152602090f35b3461004d575f36600319011261004d5760206116de61269b565b60ff60405191168152f35b3461004d5760e036600319011261004d57611702612185565b6024356001600160401b03811161004d576117219036906004016122c0565b906044356001600160a01b0381169081900361004d576064356001600160401b03811161004d576117569036906004016122c0565b926084356001600160401b03811161004d576117769036906004016122c0565b9260a4359260c4359460018060a01b03861680960361004d575f516020613ba15f395f51905f52549660ff8860401c1615976001600160401b03811680159081611e3e575b6001149081611e34575b159081611e2b575b50611e1c5767ffffffffffffffff1981166001175f516020613ba15f395f51905f525588611df0575b506117ff613868565b611807613868565b8051906001600160401b038211611cd95781906118315f516020613a815f395f51905f52546122de565b601f8111611d76575b50602090601f8311600114611cf8575f92611ced575b50508160011b915f199060031b1c1916175f516020613a815f395f51905f52555b8051906001600160401b038211611cd9576118995f516020613ac15f395f51905f52546122de565b601f8111611c6a575b50602090601f8311600114611bd7579461195f63ffffffff95604095856101209661199796611a8e9b5f92611bcc575b50508160011b915f199060031b1c1916175f516020613ac15f395f51905f52555b6118fb613868565b611903613868565b61190c81613944565b9015611bc4575b5f516020613b415f395f51905f52549060ff60a01b9060a01b16906affffffffffffffffffffff60a81b1617175f516020613b415f395f51905f5255611957613868565b610294613868565b611967613868565b61196f613868565b60015f516020613b615f395f51905f5255611988613868565b602080825183010191016124d4565b80515f80546001600160a01b039283166001600160a01b0319918216179091556020808401518685015160608087015160808801518b1660e090811b918c1660c090811b958916948d1660a090811b63ffffffff60a01b9081169690961796909617929092176001558489015160028054938b0151928b015167ffffffffffffffff60601b951b949094166bffffffffffffffff0000000092881b92909216908d1692881692909217919091171790556101008601516003559590940151805160048054918616919094161790925581015160058054929096015192166001600160c01b0319909116179416901b16919091179055565b611a9e611a996125d9565b613087565b60ff611aa861269b565b16604d81116103dd57600a0a600b558015611b6f5760065560085467ffffffffffffffff60401b4260401b169067ffffffffffffffff60401b1916176008556001600160601b0360a01b5f516020613b815f395f51905f525416175f516020613b815f395f51905f5255611b1857005b68ff0000000000000000195f516020613ba15f395f51905f5254165f516020613ba15f395f51905f52557fc7f505b2f371ae2175ee4913f4499e1f2633a7b5936321eed1cdaeb6115181d2602060405160018152a1005b60405162461bcd60e51b815260206004820152602760248201527f5374617274696e6720726564656d7074696f6e20726174652063616e6e6f74206044820152666265207a65726f60c81b6064820152608490fd5b506012611913565b015190508e806118d2565b90601f198316915f516020613ac15f395f51905f525f52815f20925f5b818110611c5257509560409560018661199796611a8e9b9661195f966101209a63ffffffff9d10611c3a575b505050811b015f516020613ac15f395f51905f52556118f3565b01515f1960f88460031b161c191690558e8080611c20565b92936020600181928786015181550195019301611bf4565b5f516020613ac15f395f51905f525f527f46a2803e59a4de4e7a4c574b1243f25977ac4c77d5a1a4a609b5394cebb4a2aa601f840160051c81019160208510611ccf575b601f0160051c01905b818110611cc457506118a2565b5f8155600101611cb7565b9091508190611cae565b634e487b7160e01b5f52604160045260245ffd5b015190508980611850565b5f516020613a815f395f51905f525f9081528281209350601f198516905b818110611d5e5750908460019594939210611d46575b505050811b015f516020613a815f395f51905f5255611871565b01515f1960f88460031b161c19169055898080611d2c565b92936020600181928786015181550195019301611d16565b5f516020613a815f395f51905f525f529091507f2ae08a8e29253f69ac5d979a101956ab8f8d9d7ded63fa7a83b16fc47648eab0601f840160051c81019160208510611de6575b90601f859493920160051c01905b818110611dd8575061183a565b5f8155849350600101611dcb565b9091508190611dbd565b68ffffffffffffffffff191668010000000000000001175f516020613ba15f395f51905f5255886117f6565b63f92ee8a960e01b5f5260045ffd5b9050158a6117cd565b303b1591506117c5565b8a91506117bb565b3461004d575f36600319011261004d57606060075460ff6040519181811615158352818160081c161515602084015260101c1615156040820152f35b3461004d57602036600319011261004d57602061030a600435612480565b3461004d57606036600319011261004d5761050b611ebc612185565b611ec461219b565b60443591611ed3833383612f06565b612fa3565b3461004d57611ee6366121b1565b5f516020613b815f395f51905f52549092906001600160a01b0316330361118d57611f0f612a7f565b60ff600754166105a25761058f936123cc565b3461004d575f36600319011261004d5760206001600160401b0360085460401c16604051908152f35b3461004d57602036600319011261004d57602061030a600435612391565b3461004d575f36600319011261004d5760205f516020613b015f395f51905f5254604051908152f35b3461004d57602036600319011261004d57602061030a600b5460065490600435612a43565b3461004d57604036600319011261004d57611fd0612185565b602435903315612049576001600160a01b031690811561203657611ff333612808565b825f526020528060405f20556040519081527f8c5be1e5ebec7d5bd14f71427d1e84f3dd0314c0f7b2291e5b200ac8c7c3b92560203392a3602060405160018152f35b634a1406b160e11b5f525f60045260245ffd5b63e602df0560e01b5f525f60045260245ffd5b3461004d575f36600319011261004d576040515f5f516020613a815f395f51905f5254612088816122de565b80845290600181169081156106ab57506001146120af576104e18361062d8185038261224e565b5f516020613a815f395f51905f525f9081527f2ae08a8e29253f69ac5d979a101956ab8f8d9d7ded63fa7a83b16fc47648eab0939250905b8082106120ff5750909150810160200161062d61061d565b9192600181602092548385880101520191019092916120e7565b3461004d575f36600319011261004d57602061030a612373565b805180835260209291819084018484015e5f828201840152601f01601f1916010190565b3461004d57602036600319011261004d5761217a600654600b5490600435613714565b604051908152602090f35b600435906001600160a01b038216820361004d57565b602435906001600160a01b038216820361004d57565b606060031982011261004d57600435916024356001600160401b03811161004d578260238201121561004d578060040135926001600160401b03841161004d576024848301011161004d5760240191906044356001600160a01b038116810361004d5790565b606081019081106001600160401b03821117611cd957604052565b61014081019081106001600160401b03821117611cd957604052565b90601f801991011681019081106001600160401b03821117611cd957604052565b6001600160401b038111611cd957601f01601f191660200190565b9291926122968261226f565b916122a4604051938461224e565b82948184528183011161004d578281602093845f960137010152565b9080601f8301121561004d578160206122db9335910161228a565b90565b90600182811c9216801561230c575b60208310146122f857565b634e487b7160e01b5f52602260045260245ffd5b91607f16916122ed565b606090600319011261004d57600435906024356001600160a01b038116810361004d57906044356001600160a01b038116810361004d5790565b3461004d57602036600319011261004d5761217a600b5460065490600435613714565b6122db5f516020613b015f395f51905f5254600654600b5491613714565b63ffffffff60015460c01c1680156123ac576122db91612a63565b50505f90565b919082039182116103dd57565b919082018092116103dd57565b939291906123d8612ab7565b612479576123e885838386612b68565b6123f1836129a3565b948581116124555761243e94955061240881612391565b9061243161242b61241984846123b2565b92600b54918291600654938491612a43565b93612a43565b9180612440575b50612c6c565b565b61244c906009546123bf565b6009555f612438565b93505050633fa733bb60e21b5f5260018060a01b031660045260245260445260645ffd5b5050509050565b63ffffffff60015460a01c1680156123ac576122db91612a63565b51906001600160a01b038216820361004d57565b519063ffffffff8216820361004d57565b51906001600160401b038216820361004d57565b80910390610180821261004d57604051916124ee83612232565b8151906001600160a01b038216820361004d5760609184526125126020840161249b565b6020850152612523604084016124af565b60408501526125338284016124af565b82850152612543608084016124af565b608085015261255460a084016124af565b60a085015261256560c084016124c0565b60c085015261257660e084016124c0565b60e085015261010083015161010085015261011f19011261004d576125cb610160604051926125a484612217565b6125b1610120820161249b565b84526125c0610140820161249b565b6020850152016124af565b604082015261012082015290565b604051906125e682612232565b8160018060a01b035f5416815260015460018060a01b038116602083015263ffffffff8160a01c16604083015263ffffffff8160c01c16606083015260e01c60808201526001600160401b0360025463ffffffff811660a0840152818160201c1660c084015260601c1660e08201526003546101008201526101206040519161266e83612217565b6004546001600160a01b039081168452600554908116602085015260a01c63ffffffff1660408401520152565b60ff5f516020613b415f395f51905f525460a01c1660ff81116103dd5790565b906001600160401b03809116911603906001600160401b0382116103dd57565b60035480156126fd576126ec612373565b818110156123ac576122db916123b2565b505f1990565b61271390600654600b5491612a43565b9063ffffffff60015460a01c16801561277a57806127100361271081116103dd576127418161271086613714565b9161271014612766576122db9161275f9161271086091515906123bf565b92836123b2565b634e487b7160e01b5f52601260045260245ffd5b505f90565b612787612ab7565b6123ac576127936126db565b8082116127e757506127c56127a782612480565b6127b181846123b2565b90806127d2575b50600b5460065491613714565b916122db9183913361349f565b6127de906009546123bf565b6009555f6127b8565b91633c8097d960e11b5f5260018060a01b031660045260245260445260645ffd5b6001600160a01b03165f9081527f52c63247e1f47db19d5ce0460030c497f067ca4cebf71ba98eeadabe20bace016020526040902090565b6001600160a01b03165f9081525f516020613aa15f395f51905f52602052604090205490565b818102929181159184041417156103dd57565b612881612ab7565b6123ac5761288d612970565b8082116128c75750806128a26122db92612703565b938482956128b2575b503361349f565b6128be906009546123bf565b6009555f6128ab565b9163284ff66760e01b5f5260018060a01b031660045260245260445260645ffd5b9291906128f3612ab7565b61296a5761290384838386612b68565b61290c83612840565b808511612948575060065493600b5490612927828783613714565b9161243e966124319161294361293c86612391565b80966123b2565b612a43565b8484632e52afbb60e21b5f5260018060a01b031660045260245260445260645ffd5b50505050565b60035480156126fd57612981612373565b90808210156123ac576122db91612997916123b2565b600b5460065491613714565b60018060a01b03165f525f516020613aa15f395f51905f526020526122db60405f2054600654600b5491613714565b6001600160a01b03168015612a30575f516020613ae15f395f51905f5280546001600160a01b0319811683179091556001600160a01b03167f8be0079c531659141344cd1fd0a4f28419497f9722a3daafe3b4186f6b6457e05f80a3565b631e4fbdf760e01b5f525f60045260245ffd5b91612a4f818385613714565b918115612766576122db93091515906123bf565b6127106122db92612a75828285613714565b92091515906123bf565b60025f516020613b615f395f51905f525414612aa85760025f516020613b615f395f51905f5255565b633ee5aeb560e01b5f5260045ffd5b6001600160401b0342166001600160401b0360085460401c1690612adb82826126bb565b6001600160401b038060025460601c16911611612af85750505f90565b7fa23eaefe5c1780165b918668e0e10213a317fdab62f9a2fda3efd75a66de1ef0916040916201000162ff00ff1960075416176007557f9e3a5e37224532dea67b89face185703738a228a6e8a23dee546960180d3be646020845160018152a182519182526020820152a1600190565b6001600160a01b0316159050612c185715612bd35715612b8457565b60405162461bcd60e51b815260206004820152602160248201527f416d6f756e7420746f2077697468647261772063616e6e6f74206265207a65726044820152606f60f81b6064820152608490fd5b60405162461bcd60e51b815260206004820152601860248201527f52656365697665722063616e6e6f7420626520656d70747900000000000000006044820152606490fd5b60405162461bcd60e51b815260206004820152602660248201527f4f776e6572206f66207368617265732063616e6e6f74206265207a65726f206160448201526564647265737360d01b6064820152608490fd5b6001600160a01b03851694919291612c8c919033879003612ef6576137b2565b6001600160401b036008541660065460405160a08101918183106001600160401b03841117611cd9576003926040528382526020820190888252604083019081526060830191878352612ce0368a8961228a565b608085019081525f968752600a6020526040968790209451855492516001600160e01b03199093166001600160401b03918216179290971b68010000000000000000600160e01b0316919091178455905160018401559051600283015551805192909101928211611cd957612d5583546122de565b601f8111612eb1575b50602090601f8311600114612e2b577f34c29e8bdf5793b0f63f12d98c77ae4c94d65ed48423c83059e7c34575f68d3a949392915f9183612e20575b50508160011b915f199060031b1c19161790555b6080600854956001600160401b03871695869581604051958694855260606020860152816060860152858501375f8383018501526040830152601f01601f19168101030190a26001600160401b0381146103dd5760016001600160401b03910116906001600160401b03191617600855565b015190505f80612d9a565b90601f19831691845f52815f20925f5b818110612e9957509160019391857f34c29e8bdf5793b0f63f12d98c77ae4c94d65ed48423c83059e7c34575f68d3a9897969410612e81575b505050811b019055612dae565b01515f1960f88460031b161c191690555f8080612e74565b92936020600181928786015181550195019301612e3b565b835f5260205f20601f840160051c81019160208510612eec575b601f0160051c01905b818110612ee15750612d5e565b5f8155600101612ed4565b9091508190612ecb565b612f01823383612f06565b6137b2565b9190612f1183612808565b60018060a01b0382165f5260205260405f2054925f198410612f335750505050565b828410612f80576001600160a01b03811615612049576001600160a01b0382161561203657612f6190612808565b9060018060a01b03165f5260205260405f20910390555f80808061296a565b508290637dc7a0d960e11b5f5260018060a01b031660045260245260445260645ffd5b6001600160a01b0316908115613074576001600160a01b031691821561306157815f525f516020613aa15f395f51905f5260205260405f205481811061304857817fddf252ad1be2c89b69c2b068fc378daa952ba7f163c4a11628f55a4df523b3ef92602092855f525f516020613aa15f395f51905f5284520360405f2055845f525f516020613aa15f395f51905f52825260405f20818154019055604051908152a3565b8263391434e360e21b5f5260045260245260445260645ffd5b63ec442f0560e01b5f525f60045260245ffd5b634b637e8f60e11b5f525f60045260245ffd5b80516001600160a01b03161561344b5760208101516001600160a01b0316156133fc5761271063ffffffff604083015116116133b75761271063ffffffff606083015116116133725761271063ffffffff60a0830151161161331f5760e081016001600160401b03815116156132ce576001600160401b038060c08401511691511610613263576101200161271063ffffffff60408351015116116131f8578051602001516001600160a01b0316156131a35751516001600160a01b03161561314c57565b60405162461bcd60e51b815260206004820152602960248201527f53747261746567697374206163636f756e742063616e6e6f74206265207a65726044820152686f206164647265737360b81b6064820152608490fd5b60405162461bcd60e51b815260206004820152602760248201527f506c6174666f726d206163636f756e742063616e6e6f74206265207a65726f206044820152666164647265737360c81b6064820152608490fd5b60405162461bcd60e51b815260206004820152603c60248201527f53747261746567697374206163636f756e74206665652064697374726962757460448201527f696f6e20726174696f2063616e6e6f74206578636565642031303025000000006064820152608490fd5b60405162461bcd60e51b815260206004820152603760248201527f4d696e696d756d207570646174652064656c61792063616e6e6f74206578636560448201527f6564206d6178696d756d207570646174652064656c61790000000000000000006064820152608490fd5b60405162461bcd60e51b8152602060048201526024808201527f4d61782072617465207570646174652064656c61792063616e6e6f74206265206044820152637a65726f60e01b6064820152608490fd5b60405162461bcd60e51b815260206004820152602560248201527f4d617820726174652064656372656d656e742063616e6e6f7420657863656564604482015264203130302560d81b6064820152608490fd5b60405162461bcd60e51b815260206004820152601f60248201527f5769746864726177206665652063616e6e6f74206578636565642031303025006044820152606490fd5b60405162461bcd60e51b815260206004820152601e60248201527f4465706f736974206665652063616e6e6f7420657863656564203130302500006044820152606490fd5b60405162461bcd60e51b815260206004820152602160248201527f537472617465676973742063616e6e6f74206265207a65726f206164647265736044820152607360f81b6064820152608490fd5b60405162461bcd60e51b815260206004820152602660248201527f4465706f736974206163636f756e742063616e6e6f74206265207a65726f206160448201526564647265737360d01b6064820152608490fd5b5f516020613b415f395f51905f52545f54604080516323b872dd60e01b60208201526001600160a01b0394851660248201819052928516604482015260648082018890528152959691957fdcbc1c05240f31ff3ad067ef1ee35ce4997762752e3a095284754544f4c709d79591949193613524921661351f60848361224e565b6139bf565b61352e8183613893565b825195865260208601526001600160a01b031693a3565b5f516020613ae15f395f51905f52546001600160a01b0316330361356557565b63118cdaa760e01b5f523360045260245ffd5b6009549081156136575761359961271063ffffffff60408401511684613714565b6135a6816135b8946123b2565b90600b54938491600654928391613714565b936135c292613714565b9160407ff227c93b6b816f85ef75ee32431495d61932665acd4193a40431a42f1502701a915f6009558061363c575b8461361e575b83516020948501518351928352948201959095526001600160a01b039384169490931692a3565b60208401516136379086906001600160a01b0316613893565b6135f7565b83516136529082906001600160a01b0316613893565b6135f1565b5050565b6001600160a01b03808416959294908216937ffbde797d201c681b91056529119e0b02407c7bb96a4a2c75c01fc9667232c8db9360409390916136ab91839190828b8a03613703575b50506137b2565b5f516020613b415f395f51905f5254835163a9059cbb60e01b60208201526001600160a01b039788166024820181905260448083018690528252976136f6921661351f60648361224e565b82519182526020820152a4565b61370d9183612f06565b5f826136a4565b91818302915f19818509938380861095039480860395146137a4578483111561378c5790829109815f0382168092046002816003021880820260020302808202600203028082026002030280820260020302808202600203028091026002030293600183805f03040190848311900302920304170290565b82634e487b715f52156003026011186020526024601cfd5b505091508115612766570490565b9091906001600160a01b0316801561307457805f525f516020613aa15f395f51905f5260205260405f205483811061384e576020845f94957fddf252ad1be2c89b69c2b068fc378daa952ba7f163c4a11628f55a4df523b3ef938587525f516020613aa15f395f51905f528452036040862055805f516020613b015f395f51905f5254035f516020613b015f395f51905f5255604051908152a3565b915063391434e360e21b5f5260045260245260445260645ffd5b60ff5f516020613ba15f395f51905f525460401c161561388457565b631afcd79f60e31b5f5260045ffd5b6001600160a01b0316908115613061577fddf252ad1be2c89b69c2b068fc378daa952ba7f163c4a11628f55a4df523b3ef6020826138e05f945f516020613b015f395f51905f52546123bf565b5f516020613b015f395f51905f52558484525f516020613aa15f395f51905f52825260408420818154019055604051908152a3565b3d1561393f573d906139268261226f565b91613934604051938461224e565b82523d5f602084013e565b606090565b5f8091604051602081019063313ce56760e01b82526004815261396860248261224e565b51916001600160a01b03165afa61397d613915565b90806139b3575b613990575b505f905f90565b60208180518101031261004d576020015160ff8111613989579060ff6001921690565b50602081511015613984565b905f602091828151910182855af115613a17575f513d613a0e57506001600160a01b0381163b155b6139ee5750565b635274afe760e01b5f9081526001600160a01b0391909116600452602490fd5b600114156139e7565b6040513d5f823e3d90fd5b90613a465750805115613a3757805190602001fd5b63d6bda27560e01b5f5260045ffd5b81511580613a77575b613a57575090565b639996b31560e01b5f9081526001600160a01b0391909116600452602490fd5b50803b15613a4f56fe52c63247e1f47db19d5ce0460030c497f067ca4cebf71ba98eeadabe20bace0352c63247e1f47db19d5ce0460030c497f067ca4cebf71ba98eeadabe20bace0052c63247e1f47db19d5ce0460030c497f067ca4cebf71ba98eeadabe20bace049016d09d72d40fdae2fd8ceac6b6234c7706214fd39c1cd1e609a0528c19930052c63247e1f47db19d5ce0460030c497f067ca4cebf71ba98eeadabe20bace02360894a13ba1a3210667c828492db98dca3e2076cc3735a920a3ca505d382bbc0773e532dfede91f04b12a73d3d2acd361424f41f76b4fb79f090161e36b4e009b779b17422d0df92223018b32b4d1fa46e071723d6817e2486d003becc55f004716d747150b04699545244f6e6fb3e16948c6fec05693434a01f1b98f81bd93f0c57e16840df040f15088dc2f81fe391c3923bec73e23a9662efc9c229c6a00a2646970667358221220ce56a7933d6f49a341a2e19939b084a747d6e83a8d61777a230b51637b803efc64736f6c634300081e0033f0c57e16840df040f15088dc2f81fe391c3923bec73e23a9662efc9c229c6a00","linkReferences":{}},"methodIdentifiers":{"UPGRADE_INTERFACE_VERSION()":"ad3cb1cc","allowance(address,address)":"dd62ed3e","approve(address,uint256)":"095ea7b3","asset()":"38d52e0f","balanceOf(address)":"70a08231","calculateDepositFee(uint256)":"247d284b","calculateMintFee(uint256)":"5c095e54","calculateWithdrawalFee(uint256)":"18e1b3bb","config()":"79502c55","convertToAssets(uint256)":"07a2d13a","convertToShares(uint256)":"c6e6f592","currentWithdrawRequestId()":"d083b2ee","decimals()":"313ce567","deposit(uint256,address)":"6e553f65","feesAccruedInAsset()":"cd1da35c","initialize(address,bytes,address,string,string,uint256,address)":"2f855eec","lastRateUpdateTimestamp()":"18fe961b","maxDeposit(address)":"402d267d","maxMint(address)":"c63d75b6","maxRedeem(address)":"d905777e","maxWithdraw(address)":"ce96cb77","mint(uint256,address)":"94bf804d","name()":"06fdde03","owner()":"8da5cb5b","pause()":"8456cb59","previewDeposit(uint256)":"ef8b30f7","previewMint(uint256)":"b3d7f6b9","previewRedeem(uint256)":"4cdad506","previewWithdraw(uint256)":"0a28a477","proxiableUUID()":"52d1902d","redeem(uint256,address,address)":"ba087652","redeem(uint256,string,address)":"99646d1c","redemptionRate()":"540385a3","renounceOwnership()":"715018a6","symbol()":"95d89b41","totalAssets()":"01e1d114","totalSupply()":"18160ddd","transfer(address,uint256)":"a9059cbb","transferFrom(address,address,uint256)":"23b872dd","transferOwnership(address)":"f2fde38b","unpause()":"3f4ba83a","update(uint256)":"82ab890a","updateConfig(bytes)":"8cc6acce","updateWrapper(address)":"9a2a42b8","upgradeToAndCall(address,bytes)":"4f1ef286","vaultState()":"2728f333","withdraw(uint256,address,address)":"b460af94","withdraw(uint256,string,address)":"1bd9c31a","withdrawRequests(uint64)":"94ba2b8d"},"id":65}