{
    "abi": [
        {
            "type": "constructor",
            "inputs": [],
            "stateMutability": "nonpayable"
        },
        {
            "type": "fallback",
            "stateMutability": "nonpayable"
        },
        {
            "type": "function",
            "name": "UPGRADE_INTERFACE_VERSION",
            "inputs": [],
            "outputs": [
                {
                    "name": "",
                    "type": "string",
                    "internalType": "string"
                }
            ],
            "stateMutability": "view"
        },
        {
            "type": "function",
            "name": "allowance",
            "inputs": [
                {
                    "name": "owner",
                    "type": "address",
                    "internalType": "address"
                },
                {
                    "name": "spender",
                    "type": "address",
                    "internalType": "address"
                }
            ],
            "outputs": [
                {
                    "name": "",
                    "type": "uint256",
                    "internalType": "uint256"
                }
            ],
            "stateMutability": "view"
        },
        {
            "type": "function",
            "name": "approve",
            "inputs": [
                {
                    "name": "spender",
                    "type": "address",
                    "internalType": "address"
                },
                {
                    "name": "value",
                    "type": "uint256",
                    "internalType": "uint256"
                }
            ],
            "outputs": [
                {
                    "name": "",
                    "type": "bool",
                    "internalType": "bool"
                }
            ],
            "stateMutability": "nonpayable"
        },
        {
            "type": "function",
            "name": "asset",
            "inputs": [],
            "outputs": [
                {
                    "name": "",
                    "type": "address",
                    "internalType": "address"
                }
            ],
            "stateMutability": "view"
        },
        {
            "type": "function",
            "name": "balanceOf",
            "inputs": [
                {
                    "name": "account",
                    "type": "address",
                    "internalType": "address"
                }
            ],
            "outputs": [
                {
                    "name": "",
                    "type": "uint256",
                    "internalType": "uint256"
                }
            ],
            "stateMutability": "view"
        },
        {
            "type": "function",
            "name": "calculateDepositFee",
            "inputs": [
                {
                    "name": "assets",
                    "type": "uint256",
                    "internalType": "uint256"
                }
            ],
            "outputs": [
                {
                    "name": "",
                    "type": "uint256",
                    "internalType": "uint256"
                }
            ],
            "stateMutability": "view"
        },
        {
            "type": "function",
            "name": "calculateMintFee",
            "inputs": [
                {
                    "name": "shares",
                    "type": "uint256",
                    "internalType": "uint256"
                }
            ],
            "outputs": [
                {
                    "name": "",
                    "type": "uint256",
                    "internalType": "uint256"
                },
                {
                    "name": "",
                    "type": "uint256",
                    "internalType": "uint256"
                }
            ],
            "stateMutability": "view"
        },
        {
            "type": "function",
            "name": "calculateWithdrawalFee",
            "inputs": [
                {
                    "name": "assets",
                    "type": "uint256",
                    "internalType": "uint256"
                }
            ],
            "outputs": [
                {
                    "name": "",
                    "type": "uint256",
                    "internalType": "uint256"
                }
            ],
            "stateMutability": "view"
        },
        {
            "type": "function",
            "name": "config",
            "inputs": [],
            "outputs": [
                {
                    "name": "depositAccount",
                    "type": "address",
                    "internalType": "contract BaseAccount"
                },
                {
                    "name": "strategist",
                    "type": "address",
                    "internalType": "address"
                },
                {
                    "name": "depositFeeBps",
                    "type": "uint32",
                    "internalType": "uint32"
                },
                {
                    "name": "withdrawFeeBps",
                    "type": "uint32",
                    "internalType": "uint32"
                },
                {
                    "name": "maxRateIncrementBps",
                    "type": "uint32",
                    "internalType": "uint32"
                },
                {
                    "name": "maxRateDecrementBps",
                    "type": "uint32",
                    "internalType": "uint32"
                },
                {
                    "name": "minRateUpdateDelay",
                    "type": "uint64",
                    "internalType": "uint64"
                },
                {
                    "name": "maxRateUpdateDelay",
                    "type": "uint64",
                    "internalType": "uint64"
                },
                {
                    "name": "depositCap",
                    "type": "uint256",
                    "internalType": "uint256"
                },
                {
                    "name": "feeDistribution",
                    "type": "tuple",
                    "internalType": "struct KYCOneWayVault.FeeDistributionConfig",
                    "components": [
                        {
                            "name": "strategistAccount",
                            "type": "address",
                            "internalType": "address"
                        },
                        {
                            "name": "platformAccount",
                            "type": "address",
                            "internalType": "address"
                        },
                        {
                            "name": "strategistRatioBps",
                            "type": "uint32",
                            "internalType": "uint32"
                        }
                    ]
                }
            ],
            "stateMutability": "view"
        },
        {
            "type": "function",
            "name": "convertToAssets",
            "inputs": [
                {
                    "name": "shares",
                    "type": "uint256",
                    "internalType": "uint256"
                }
            ],
            "outputs": [
                {
                    "name": "",
                    "type": "uint256",
                    "internalType": "uint256"
                }
            ],
            "stateMutability": "view"
        },
        {
            "type": "function",
            "name": "convertToShares",
            "inputs": [
                {
                    "name": "assets",
                    "type": "uint256",
                    "internalType": "uint256"
                }
            ],
            "outputs": [
                {
                    "name": "",
                    "type": "uint256",
                    "internalType": "uint256"
                }
            ],
            "stateMutability": "view"
        },
        {
            "type": "function",
            "name": "currentWithdrawRequestId",
            "inputs": [],
            "outputs": [
                {
                    "name": "",
                    "type": "uint64",
                    "internalType": "uint64"
                }
            ],
            "stateMutability": "view"
        },
        {
            "type": "function",
            "name": "decimals",
            "inputs": [],
            "outputs": [
                {
                    "name": "",
                    "type": "uint8",
                    "internalType": "uint8"
                }
            ],
            "stateMutability": "view"
        },
        {
            "type": "function",
            "name": "deposit",
            "inputs": [
                {
                    "name": "assets",
                    "type": "uint256",
                    "internalType": "uint256"
                },
                {
                    "name": "receiver",
                    "type": "address",
                    "internalType": "address"
                }
            ],
            "outputs": [
                {
                    "name": "",
                    "type": "uint256",
                    "internalType": "uint256"
                }
            ],
            "stateMutability": "nonpayable"
        },
        {
            "type": "function",
            "name": "feesAccruedInAsset",
            "inputs": [],
            "outputs": [
                {
                    "name": "",
                    "type": "uint256",
                    "internalType": "uint256"
                }
            ],
            "stateMutability": "view"
        },
        {
            "type": "function",
            "name": "initialize",
            "inputs": [
                {
                    "name": "_owner",
                    "type": "address",
                    "internalType": "address"
                },
                {
                    "name": "_config",
                    "type": "bytes",
                    "internalType": "bytes"
                },
                {
                    "name": "underlying",
                    "type": "address",
                    "internalType": "address"
                },
                {
                    "name": "vaultTokenName",
                    "type": "string",
                    "internalType": "string"
                },
                {
                    "name": "vaultTokenSymbol",
                    "type": "string",
                    "internalType": "string"
                },
                {
                    "name": "startingRate",
                    "type": "uint256",
                    "internalType": "uint256"
                }
            ],
            "outputs": [],
            "stateMutability": "nonpayable"
        },
        {
            "type": "function",
            "name": "lastRateUpdateTimestamp",
            "inputs": [],
            "outputs": [
                {
                    "name": "",
                    "type": "uint64",
                    "internalType": "uint64"
                }
            ],
            "stateMutability": "view"
        },
        {
            "type": "function",
            "name": "maxDeposit",
            "inputs": [
                {
                    "name": "",
                    "type": "address",
                    "internalType": "address"
                }
            ],
            "outputs": [
                {
                    "name": "",
                    "type": "uint256",
                    "internalType": "uint256"
                }
            ],
            "stateMutability": "view"
        },
        {
            "type": "function",
            "name": "maxMint",
            "inputs": [
                {
                    "name": "",
                    "type": "address",
                    "internalType": "address"
                }
            ],
            "outputs": [
                {
                    "name": "",
                    "type": "uint256",
                    "internalType": "uint256"
                }
            ],
            "stateMutability": "view"
        },
        {
            "type": "function",
            "name": "maxRedeem",
            "inputs": [
                {
                    "name": "owner",
                    "type": "address",
                    "internalType": "address"
                }
            ],
            "outputs": [
                {
                    "name": "",
                    "type": "uint256",
                    "internalType": "uint256"
                }
            ],
            "stateMutability": "view"
        },
        {
            "type": "function",
            "name": "maxWithdraw",
            "inputs": [
                {
                    "name": "owner",
                    "type": "address",
                    "internalType": "address"
                }
            ],
            "outputs": [
                {
                    "name": "",
                    "type": "uint256",
                    "internalType": "uint256"
                }
            ],
            "stateMutability": "view"
        },
        {
            "type": "function",
            "name": "mint",
            "inputs": [
                {
                    "name": "shares",
                    "type": "uint256",
                    "internalType": "uint256"
                },
                {
                    "name": "receiver",
                    "type": "address",
                    "internalType": "address"
                }
            ],
            "outputs": [
                {
                    "name": "",
                    "type": "uint256",
                    "internalType": "uint256"
                }
            ],
            "stateMutability": "nonpayable"
        },
        {
            "type": "function",
            "name": "name",
            "inputs": [],
            "outputs": [
                {
                    "name": "",
                    "type": "string",
                    "internalType": "string"
                }
            ],
            "stateMutability": "view"
        },
        {
            "type": "function",
            "name": "owner",
            "inputs": [],
            "outputs": [
                {
                    "name": "",
                    "type": "address",
                    "internalType": "address"
                }
            ],
            "stateMutability": "view"
        },
        {
            "type": "function",
            "name": "pause",
            "inputs": [],
            "outputs": [],
            "stateMutability": "nonpayable"
        },
        {
            "type": "function",
            "name": "previewDeposit",
            "inputs": [
                {
                    "name": "assets",
                    "type": "uint256",
                    "internalType": "uint256"
                }
            ],
            "outputs": [
                {
                    "name": "",
                    "type": "uint256",
                    "internalType": "uint256"
                }
            ],
            "stateMutability": "view"
        },
        {
            "type": "function",
            "name": "previewMint",
            "inputs": [
                {
                    "name": "shares",
                    "type": "uint256",
                    "internalType": "uint256"
                }
            ],
            "outputs": [
                {
                    "name": "",
                    "type": "uint256",
                    "internalType": "uint256"
                }
            ],
            "stateMutability": "view"
        },
        {
            "type": "function",
            "name": "previewRedeem",
            "inputs": [
                {
                    "name": "shares",
                    "type": "uint256",
                    "internalType": "uint256"
                }
            ],
            "outputs": [
                {
                    "name": "",
                    "type": "uint256",
                    "internalType": "uint256"
                }
            ],
            "stateMutability": "view"
        },
        {
            "type": "function",
            "name": "previewWithdraw",
            "inputs": [
                {
                    "name": "assets",
                    "type": "uint256",
                    "internalType": "uint256"
                }
            ],
            "outputs": [
                {
                    "name": "",
                    "type": "uint256",
                    "internalType": "uint256"
                }
            ],
            "stateMutability": "view"
        },
        {
            "type": "function",
            "name": "proxiableUUID",
            "inputs": [],
            "outputs": [
                {
                    "name": "",
                    "type": "bytes32",
                    "internalType": "bytes32"
                }
            ],
            "stateMutability": "view"
        },
        {
            "type": "function",
            "name": "redeem",
            "inputs": [
                {
                    "name": "shares",
                    "type": "uint256",
                    "internalType": "uint256"
                },
                {
                    "name": "receiver",
                    "type": "string",
                    "internalType": "string"
                },
                {
                    "name": "owner",
                    "type": "address",
                    "internalType": "address"
                }
            ],
            "outputs": [],
            "stateMutability": "nonpayable"
        },
        {
            "type": "function",
            "name": "redeem",
            "inputs": [
                {
                    "name": "shares",
                    "type": "uint256",
                    "internalType": "uint256"
                },
                {
                    "name": "receiver",
                    "type": "address",
                    "internalType": "address"
                },
                {
                    "name": "owner",
                    "type": "address",
                    "internalType": "address"
                }
            ],
            "outputs": [
                {
                    "name": "",
                    "type": "uint256",
                    "internalType": "uint256"
                }
            ],
            "stateMutability": "nonpayable"
        },
        {
            "type": "function",
            "name": "redemptionRate",
            "inputs": [],
            "outputs": [
                {
                    "name": "",
                    "type": "uint256",
                    "internalType": "uint256"
                }
            ],
            "stateMutability": "view"
        },
        {
            "type": "function",
            "name": "renounceOwnership",
            "inputs": [],
            "outputs": [],
            "stateMutability": "nonpayable"
        },
        {
            "type": "function",
            "name": "setUserAllowed",
            "inputs": [
                {
                    "name": "_user",
                    "type": "address",
                    "internalType": "address"
                },
                {
                    "name": "_allowed",
                    "type": "bool",
                    "internalType": "bool"
                }
            ],
            "outputs": [],
            "stateMutability": "nonpayable"
        },
        {
            "type": "function",
            "name": "symbol",
            "inputs": [],
            "outputs": [
                {
                    "name": "",
                    "type": "string",
                    "internalType": "string"
                }
            ],
            "stateMutability": "view"
        },
        {
            "type": "function",
            "name": "totalAssets",
            "inputs": [],
            "outputs": [
                {
                    "name": "",
                    "type": "uint256",
                    "internalType": "uint256"
                }
            ],
            "stateMutability": "view"
        },
        {
            "type": "function",
            "name": "totalSupply",
            "inputs": [],
            "outputs": [
                {
                    "name": "",
                    "type": "uint256",
                    "internalType": "uint256"
                }
            ],
            "stateMutability": "view"
        },
        {
            "type": "function",
            "name": "transfer",
            "inputs": [
                {
                    "name": "to",
                    "type": "address",
                    "internalType": "address"
                },
                {
                    "name": "value",
                    "type": "uint256",
                    "internalType": "uint256"
                }
            ],
            "outputs": [
                {
                    "name": "",
                    "type": "bool",
                    "internalType": "bool"
                }
            ],
            "stateMutability": "nonpayable"
        },
        {
            "type": "function",
            "name": "transferFrom",
            "inputs": [
                {
                    "name": "from",
                    "type": "address",
                    "internalType": "address"
                },
                {
                    "name": "to",
                    "type": "address",
                    "internalType": "address"
                },
                {
                    "name": "value",
                    "type": "uint256",
                    "internalType": "uint256"
                }
            ],
            "outputs": [
                {
                    "name": "",
                    "type": "bool",
                    "internalType": "bool"
                }
            ],
            "stateMutability": "nonpayable"
        },
        {
            "type": "function",
            "name": "transferOwnership",
            "inputs": [
                {
                    "name": "newOwner",
                    "type": "address",
                    "internalType": "address"
                }
            ],
            "outputs": [],
            "stateMutability": "nonpayable"
        },
        {
            "type": "function",
            "name": "unpause",
            "inputs": [],
            "outputs": [],
            "stateMutability": "nonpayable"
        },
        {
            "type": "function",
            "name": "update",
            "inputs": [
                {
                    "name": "newRate",
                    "type": "uint256",
                    "internalType": "uint256"
                }
            ],
            "outputs": [],
            "stateMutability": "nonpayable"
        },
        {
            "type": "function",
            "name": "updateConfig",
            "inputs": [
                {
                    "name": "_config",
                    "type": "bytes",
                    "internalType": "bytes"
                }
            ],
            "outputs": [],
            "stateMutability": "nonpayable"
        },
        {
            "type": "function",
            "name": "updateZkMeConfig",
            "inputs": [
                {
                    "name": "_zkMe",
                    "type": "address",
                    "internalType": "address"
                },
                {
                    "name": "_cooperator",
                    "type": "address",
                    "internalType": "address"
                }
            ],
            "outputs": [],
            "stateMutability": "nonpayable"
        },
        {
            "type": "function",
            "name": "upgradeToAndCall",
            "inputs": [
                {
                    "name": "newImplementation",
                    "type": "address",
                    "internalType": "address"
                },
                {
                    "name": "data",
                    "type": "bytes",
                    "internalType": "bytes"
                }
            ],
            "outputs": [],
            "stateMutability": "payable"
        },
        {
            "type": "function",
            "name": "userAllowed",
            "inputs": [
                {
                    "name": "_user",
                    "type": "address",
                    "internalType": "address"
                }
            ],
            "outputs": [
                {
                    "name": "",
                    "type": "bool",
                    "internalType": "bool"
                }
            ],
            "stateMutability": "view"
        },
        {
            "type": "function",
            "name": "vaultState",
            "inputs": [],
            "outputs": [
                {
                    "name": "paused",
                    "type": "bool",
                    "internalType": "bool"
                },
                {
                    "name": "pausedByOwner",
                    "type": "bool",
                    "internalType": "bool"
                },
                {
                    "name": "pausedByStaleRate",
                    "type": "bool",
                    "internalType": "bool"
                }
            ],
            "stateMutability": "view"
        },
        {
            "type": "function",
            "name": "withdraw",
            "inputs": [
                {
                    "name": "assets",
                    "type": "uint256",
                    "internalType": "uint256"
                },
                {
                    "name": "receiver",
                    "type": "string",
                    "internalType": "string"
                },
                {
                    "name": "owner",
                    "type": "address",
                    "internalType": "address"
                }
            ],
            "outputs": [],
            "stateMutability": "nonpayable"
        },
        {
            "type": "function",
            "name": "withdraw",
            "inputs": [
                {
                    "name": "assets",
                    "type": "uint256",
                    "internalType": "uint256"
                },
                {
                    "name": "receiver",
                    "type": "address",
                    "internalType": "address"
                },
                {
                    "name": "owner",
                    "type": "address",
                    "internalType": "address"
                }
            ],
            "outputs": [
                {
                    "name": "",
                    "type": "uint256",
                    "internalType": "uint256"
                }
            ],
            "stateMutability": "nonpayable"
        },
        {
            "type": "function",
            "name": "withdrawRequests",
            "inputs": [
                {
                    "name": "",
                    "type": "uint64",
                    "internalType": "uint64"
                }
            ],
            "outputs": [
                {
                    "name": "id",
                    "type": "uint64",
                    "internalType": "uint64"
                },
                {
                    "name": "owner",
                    "type": "address",
                    "internalType": "address"
                },
                {
                    "name": "redemptionRate",
                    "type": "uint256",
                    "internalType": "uint256"
                },
                {
                    "name": "sharesAmount",
                    "type": "uint256",
                    "internalType": "uint256"
                },
                {
                    "name": "receiver",
                    "type": "string",
                    "internalType": "string"
                }
            ],
            "stateMutability": "view"
        },
        {
            "type": "event",
            "name": "Approval",
            "inputs": [
                {
                    "name": "owner",
                    "type": "address",
                    "indexed": true,
                    "internalType": "address"
                },
                {
                    "name": "spender",
                    "type": "address",
                    "indexed": true,
                    "internalType": "address"
                },
                {
                    "name": "value",
                    "type": "uint256",
                    "indexed": false,
                    "internalType": "uint256"
                }
            ],
            "anonymous": false
        },
        {
            "type": "event",
            "name": "ConfigUpdated",
            "inputs": [
                {
                    "name": "updater",
                    "type": "address",
                    "indexed": true,
                    "internalType": "address"
                },
                {
                    "name": "newConfig",
                    "type": "tuple",
                    "indexed": false,
                    "internalType": "struct KYCOneWayVault.KYCOneWayVaultConfig",
                    "components": [
                        {
                            "name": "depositAccount",
                            "type": "address",
                            "internalType": "contract BaseAccount"
                        },
                        {
                            "name": "strategist",
                            "type": "address",
                            "internalType": "address"
                        },
                        {
                            "name": "depositFeeBps",
                            "type": "uint32",
                            "internalType": "uint32"
                        },
                        {
                            "name": "withdrawFeeBps",
                            "type": "uint32",
                            "internalType": "uint32"
                        },
                        {
                            "name": "maxRateIncrementBps",
                            "type": "uint32",
                            "internalType": "uint32"
                        },
                        {
                            "name": "maxRateDecrementBps",
                            "type": "uint32",
                            "internalType": "uint32"
                        },
                        {
                            "name": "minRateUpdateDelay",
                            "type": "uint64",
                            "internalType": "uint64"
                        },
                        {
                            "name": "maxRateUpdateDelay",
                            "type": "uint64",
                            "internalType": "uint64"
                        },
                        {
                            "name": "depositCap",
                            "type": "uint256",
                            "internalType": "uint256"
                        },
                        {
                            "name": "feeDistribution",
                            "type": "tuple",
                            "internalType": "struct KYCOneWayVault.FeeDistributionConfig",
                            "components": [
                                {
                                    "name": "strategistAccount",
                                    "type": "address",
                                    "internalType": "address"
                                },
                                {
                                    "name": "platformAccount",
                                    "type": "address",
                                    "internalType": "address"
                                },
                                {
                                    "name": "strategistRatioBps",
                                    "type": "uint32",
                                    "internalType": "uint32"
                                }
                            ]
                        }
                    ]
                }
            ],
            "anonymous": false
        },
        {
            "type": "event",
            "name": "Deposit",
            "inputs": [
                {
                    "name": "sender",
                    "type": "address",
                    "indexed": true,
                    "internalType": "address"
                },
                {
                    "name": "owner",
                    "type": "address",
                    "indexed": true,
                    "internalType": "address"
                },
                {
                    "name": "assets",
                    "type": "uint256",
                    "indexed": false,
                    "internalType": "uint256"
                },
                {
                    "name": "shares",
                    "type": "uint256",
                    "indexed": false,
                    "internalType": "uint256"
                }
            ],
            "anonymous": false
        },
        {
            "type": "event",
            "name": "FeesDistributed",
            "inputs": [
                {
                    "name": "strategistAccount",
                    "type": "address",
                    "indexed": true,
                    "internalType": "address"
                },
                {
                    "name": "platformAccount",
                    "type": "address",
                    "indexed": true,
                    "internalType": "address"
                },
                {
                    "name": "strategistShares",
                    "type": "uint256",
                    "indexed": false,
                    "internalType": "uint256"
                },
                {
                    "name": "platformShares",
                    "type": "uint256",
                    "indexed": false,
                    "internalType": "uint256"
                }
            ],
            "anonymous": false
        },
        {
            "type": "event",
            "name": "Initialized",
            "inputs": [
                {
                    "name": "version",
                    "type": "uint64",
                    "indexed": false,
                    "internalType": "uint64"
                }
            ],
            "anonymous": false
        },
        {
            "type": "event",
            "name": "OwnershipTransferred",
            "inputs": [
                {
                    "name": "previousOwner",
                    "type": "address",
                    "indexed": true,
                    "internalType": "address"
                },
                {
                    "name": "newOwner",
                    "type": "address",
                    "indexed": true,
                    "internalType": "address"
                }
            ],
            "anonymous": false
        },
        {
            "type": "event",
            "name": "PausedStateChanged",
            "inputs": [
                {
                    "name": "paused",
                    "type": "bool",
                    "indexed": false,
                    "internalType": "bool"
                }
            ],
            "anonymous": false
        },
        {
            "type": "event",
            "name": "RateUpdated",
            "inputs": [
                {
                    "name": "newRate",
                    "type": "uint256",
                    "indexed": false,
                    "internalType": "uint256"
                }
            ],
            "anonymous": false
        },
        {
            "type": "event",
            "name": "StaleRatePaused",
            "inputs": [
                {
                    "name": "lastUpdateTimestamp",
                    "type": "uint64",
                    "indexed": false,
                    "internalType": "uint64"
                },
                {
                    "name": "currentTimestamp",
                    "type": "uint64",
                    "indexed": false,
                    "internalType": "uint64"
                }
            ],
            "anonymous": false
        },
        {
            "type": "event",
            "name": "Transfer",
            "inputs": [
                {
                    "name": "from",
                    "type": "address",
                    "indexed": true,
                    "internalType": "address"
                },
                {
                    "name": "to",
                    "type": "address",
                    "indexed": true,
                    "internalType": "address"
                },
                {
                    "name": "value",
                    "type": "uint256",
                    "indexed": false,
                    "internalType": "uint256"
                }
            ],
            "anonymous": false
        },
        {
            "type": "event",
            "name": "Upgraded",
            "inputs": [
                {
                    "name": "implementation",
                    "type": "address",
                    "indexed": true,
                    "internalType": "address"
                }
            ],
            "anonymous": false
        },
        {
            "type": "event",
            "name": "UserAllowed",
            "inputs": [
                {
                    "name": "updater",
                    "type": "address",
                    "indexed": true,
                    "internalType": "address"
                },
                {
                    "name": "user",
                    "type": "address",
                    "indexed": true,
                    "internalType": "address"
                },
                {
                    "name": "allowed",
                    "type": "bool",
                    "indexed": false,
                    "internalType": "bool"
                }
            ],
            "anonymous": false
        },
        {
            "type": "event",
            "name": "Withdraw",
            "inputs": [
                {
                    "name": "sender",
                    "type": "address",
                    "indexed": true,
                    "internalType": "address"
                },
                {
                    "name": "receiver",
                    "type": "address",
                    "indexed": true,
                    "internalType": "address"
                },
                {
                    "name": "owner",
                    "type": "address",
                    "indexed": true,
                    "internalType": "address"
                },
                {
                    "name": "assets",
                    "type": "uint256",
                    "indexed": false,
                    "internalType": "uint256"
                },
                {
                    "name": "shares",
                    "type": "uint256",
                    "indexed": false,
                    "internalType": "uint256"
                }
            ],
            "anonymous": false
        },
        {
            "type": "event",
            "name": "WithdrawRequested",
            "inputs": [
                {
                    "name": "id",
                    "type": "uint64",
                    "indexed": true,
                    "internalType": "uint64"
                },
                {
                    "name": "owner",
                    "type": "address",
                    "indexed": false,
                    "internalType": "address"
                },
                {
                    "name": "receiver",
                    "type": "string",
                    "indexed": false,
                    "internalType": "string"
                },
                {
                    "name": "shares",
                    "type": "uint256",
                    "indexed": false,
                    "internalType": "uint256"
                }
            ],
            "anonymous": false
        },
        {
            "type": "event",
            "name": "ZkMeConfigUpdated",
            "inputs": [
                {
                    "name": "updater",
                    "type": "address",
                    "indexed": true,
                    "internalType": "address"
                },
                {
                    "name": "newConfig",
                    "type": "tuple",
                    "indexed": false,
                    "internalType": "struct KYCOneWayVault.ZkMeConfig",
                    "components": [
                        {
                            "name": "zkMe",
                            "type": "address",
                            "internalType": "contract IZkMe"
                        },
                        {
                            "name": "cooperator",
                            "type": "address",
                            "internalType": "address"
                        }
                    ]
                }
            ],
            "anonymous": false
        },
        {
            "type": "error",
            "name": "AddressEmptyCode",
            "inputs": [
                {
                    "name": "target",
                    "type": "address",
                    "internalType": "address"
                }
            ]
        },
        {
            "type": "error",
            "name": "ERC1967InvalidImplementation",
            "inputs": [
                {
                    "name": "implementation",
                    "type": "address",
                    "internalType": "address"
                }
            ]
        },
        {
            "type": "error",
            "name": "ERC1967NonPayable",
            "inputs": []
        },
        {
            "type": "error",
            "name": "ERC20InsufficientAllowance",
            "inputs": [
                {
                    "name": "spender",
                    "type": "address",
                    "internalType": "address"
                },
                {
                    "name": "allowance",
                    "type": "uint256",
                    "internalType": "uint256"
                },
                {
                    "name": "needed",
                    "type": "uint256",
                    "internalType": "uint256"
                }
            ]
        },
        {
            "type": "error",
            "name": "ERC20InsufficientBalance",
            "inputs": [
                {
                    "name": "sender",
                    "type": "address",
                    "internalType": "address"
                },
                {
                    "name": "balance",
                    "type": "uint256",
                    "internalType": "uint256"
                },
                {
                    "name": "needed",
                    "type": "uint256",
                    "internalType": "uint256"
                }
            ]
        },
        {
            "type": "error",
            "name": "ERC20InvalidApprover",
            "inputs": [
                {
                    "name": "approver",
                    "type": "address",
                    "internalType": "address"
                }
            ]
        },
        {
            "type": "error",
            "name": "ERC20InvalidReceiver",
            "inputs": [
                {
                    "name": "receiver",
                    "type": "address",
                    "internalType": "address"
                }
            ]
        },
        {
            "type": "error",
            "name": "ERC20InvalidSender",
            "inputs": [
                {
                    "name": "sender",
                    "type": "address",
                    "internalType": "address"
                }
            ]
        },
        {
            "type": "error",
            "name": "ERC20InvalidSpender",
            "inputs": [
                {
                    "name": "spender",
                    "type": "address",
                    "internalType": "address"
                }
            ]
        },
        {
            "type": "error",
            "name": "ERC4626ExceededMaxDeposit",
            "inputs": [
                {
                    "name": "receiver",
                    "type": "address",
                    "internalType": "address"
                },
                {
                    "name": "assets",
                    "type": "uint256",
                    "internalType": "uint256"
                },
                {
                    "name": "max",
                    "type": "uint256",
                    "internalType": "uint256"
                }
            ]
        },
        {
            "type": "error",
            "name": "ERC4626ExceededMaxMint",
            "inputs": [
                {
                    "name": "receiver",
                    "type": "address",
                    "internalType": "address"
                },
                {
                    "name": "shares",
                    "type": "uint256",
                    "internalType": "uint256"
                },
                {
                    "name": "max",
                    "type": "uint256",
                    "internalType": "uint256"
                }
            ]
        },
        {
            "type": "error",
            "name": "ERC4626ExceededMaxRedeem",
            "inputs": [
                {
                    "name": "owner",
                    "type": "address",
                    "internalType": "address"
                },
                {
                    "name": "shares",
                    "type": "uint256",
                    "internalType": "uint256"
                },
                {
                    "name": "max",
                    "type": "uint256",
                    "internalType": "uint256"
                }
            ]
        },
        {
            "type": "error",
            "name": "ERC4626ExceededMaxWithdraw",
            "inputs": [
                {
                    "name": "owner",
                    "type": "address",
                    "internalType": "address"
                },
                {
                    "name": "assets",
                    "type": "uint256",
                    "internalType": "uint256"
                },
                {
                    "name": "max",
                    "type": "uint256",
                    "internalType": "uint256"
                }
            ]
        },
        {
            "type": "error",
            "name": "FailedCall",
            "inputs": []
        },
        {
            "type": "error",
            "name": "InvalidInitialization",
            "inputs": []
        },
        {
            "type": "error",
            "name": "KycFailed",
            "inputs": []
        },
        {
            "type": "error",
            "name": "NotInitializing",
            "inputs": []
        },
        {
            "type": "error",
            "name": "OwnableInvalidOwner",
            "inputs": [
                {
                    "name": "owner",
                    "type": "address",
                    "internalType": "address"
                }
            ]
        },
        {
            "type": "error",
            "name": "OwnableUnauthorizedAccount",
            "inputs": [
                {
                    "name": "account",
                    "type": "address",
                    "internalType": "address"
                }
            ]
        },
        {
            "type": "error",
            "name": "ReentrancyGuardReentrantCall",
            "inputs": []
        },
        {
            "type": "error",
            "name": "SafeERC20FailedOperation",
            "inputs": [
                {
                    "name": "token",
                    "type": "address",
                    "internalType": "address"
                }
            ]
        },
        {
            "type": "error",
            "name": "UUPSUnauthorizedCallContext",
            "inputs": []
        },
        {
            "type": "error",
            "name": "UUPSUnsupportedProxiableUUID",
            "inputs": [
                {
                    "name": "slot",
                    "type": "bytes32",
                    "internalType": "bytes32"
                }
            ]
        }
    ],
    "bytecode": {
        "object": "0x60a080604052346100c257306080525f516020613f955f395f51905f525460ff8160401c166100b3576002600160401b03196001600160401b03821601610060575b604051613ece90816100c7823960805181818161147b015261150c0152f35b6001600160401b0319166001600160401b039081175f516020613f955f395f51905f525581527fc7f505b2f371ae2175ee4913f4499e1f2633a7b5936321eed1cdaeb6115181d290602090a15f80610041565b63f92ee8a960e01b5f5260045ffd5b5f80fdfe60806040526004361015610051575b3461004d5760405162461bcd60e51b8152602060048201526012602482015271119d5b98dd1a5bdb881b9bdd08199bdd5b9960721b6044820152606490fd5b5f80fd5b5f3560e01c806301e1d114146123e457806306fdde031461232757806307a2d13a1461169c578063095ea7b3146122825780630a28a4771461225d5780630e5e1e3114611b3b57806318160ddd14611b1257806318e1b3bb14611af457806318fe961b14611acb5780631bd9c31a14611aa157806323b872dd14611a69578063247d284b14611a4b5780632728f33314611a0f578063313ce567146119ea57806338d52e0f146119b65780633f4ba83a14611792578063402d267d1461176e57806349d0411c146116a15780634cdad5061461169c5780634f1ef286146114cf57806352d1902d14611469578063540385a31461144c5780635c095e54146114225780636e553f651461131857806370a08231146102fd578063715018a6146112b157806379502c55146111af57806382ab890a14610e3e5780638456cb5914610cc55780638cc6acce14610a555780638da5cb5b14610a2157806394ba2b8d146108f957806394bf804d146107ac57806395d89b41146106b657806399646d1c14610642578063a9059cbb14610611578063ac38709a146105c8578063ad3cb1cc1461057d578063b3d7f6b914610558578063b460af94146104f6578063ba0876521461047f578063c63d75b61461045b578063c6e6f592146102b1578063cd1da35c1461043e578063ce96cb771461041b578063d083b2ee146103f5578063d1a81a8d14610328578063d905777e146102fd578063dd62ed3e146102b6578063ef8b30f7146102b15763f2fde38b0361000e573461004d57602036600319011261004d576102af6102a2612450565b6102aa613782565b612cb5565b005b61261b565b3461004d57604036600319011261004d576102cf612450565b6102e06102da612466565b91612a4a565b9060018060a01b03165f52602052602060405f2054604051908152f35b3461004d57602036600319011261004d57602061032061031b612450565b612b23565b604051908152f35b3461004d57604036600319011261004d57610341612450565b602435908115159182810361004d57610358613782565b156103c5576001600160a01b0381165f9081525f516020613e195f395f51905f5260205260409020805460ff191660011790555b6040519182526001600160a01b03169033907e11d2cf8399427190cff229b7e2f7cc9e4ea0e87fd6cbc5d252b415a5a883b590602090a3005b6001600160a01b0381165f9081525f516020613e195f395f51905f5260205260409020805460ff1916905561038c565b3461004d575f36600319011261004d5760206001600160401b0360085416604051908152f35b3461004d57602036600319011261004d576020610320610439612450565b612c86565b3461004d575f36600319011261004d576020600954604051908152f35b3461004d57602036600319011261004d57610474612450565b506020610320612c53565b3461004d5761048d366125e1565b61049981939293612b23565b8083116104d457506104b1600654600b549084613a22565b9182610320926020953361393e565b634e487b7160e01b5f52601160045260245ffd5b9250632e52afbb60e21b5f5260018060a01b031660045260245260445260645ffd5b3461004d57610504366125e1565b909161050f82612c86565b80821161053757506020926103209161052e600b54600654908361313e565b9384923361393e565b91633fa733bb60e21b5f5260018060a01b031660045260245260445260645ffd5b3461004d57602036600319011261004d576020610320600654600b549060043561313e565b3461004d575f36600319011261004d576105c460405161059e6040826124b3565b60058152640352e302e360dc1b60208201526040519182916020835260208301906123fe565b0390f35b3461004d57602036600319011261004d576001600160a01b036105e9612450565b165f525f516020613e195f395f51905f52602052602060ff60405f2054166040519015158152f35b3461004d57604036600319011261004d5761063761062d612450565b602435903361369e565b602060405160018152f35b3461004d5761065036612543565b9161065961317a565b60ff6007541661067f5761066c93612bcb565b60015f516020613e595f395f51905f5255005b60405162461bcd60e51b815260206004820152600f60248201526e15985d5b1d081a5cc81c185d5cd959608a1b6044820152606490fd5b3461004d575f36600319011261004d576040515f5f516020613d995f395f51905f52546106e2816125a9565b8084529060018116908115610788575060011461071e575b6105c48361070a818503826124b3565b6040519182916020835260208301906123fe565b5f516020613d995f395f51905f525f9081527f46a2803e59a4de4e7a4c574b1243f25977ac4c77d5a1a4a609b5394cebb4a2aa939250905b80821061076e5750909150810160200161070a6106fa565b919260018160209254838588010152019101909291610756565b60ff191660208086019190915291151560051b8401909101915061070a90506106fa565b3461004d57604036600319011261004d576107c5612466565b335f525f516020613e195f395f51905f5260205260ff60405f2054161580610834575b6108255760ff6007541661067f5761080c60209161080461317a565b600435612b5c565b60015f516020613e595f395f51905f5255604051908152f35b6376cc8d3760e01b5f5260045ffd5b507f6aa30f72c819d6ffdc11d4f73f6dbad58c3fe2ea745f3548ccd5eb0e816f9ff9547f6aa30f72c819d6ffdc11d4f73f6dbad58c3fe2ea745f3548ccd5eb0e816f9ffa5460405163032c91b160e31b81526001600160a01b0391821660048201523360248201529160209183916044918391165afa9081156108ee575f916108bf575b50156107e8565b6108e1915060203d6020116108e7575b6108d981836124b3565b810190612a82565b826108b8565b503d6108cf565b6040513d5f823e3d90fd5b3461004d57602036600319011261004d576004356001600160401b03811680910361004d575f52600a60205260405f20805460018201549160036002820154910190604051915f9080549061094d826125a9565b80865291600181169081156109fa57506001146109b6575b505090610978836105c4949303836124b3565b60405194846001600160401b03879616865260018060a01b039060401c1660208601526040850152606084015260a0608084015260a08301906123fe565b5f9081526020812094939250905b8082106109de575091925090820160200161097883610965565b91929360018160209254838589010152019101909392916109c4565b60ff191660208088019190915292151560051b860190920192506109789150849050610965565b3461004d575f36600319011261004d575f516020613db95f395f51905f52546040516001600160a01b039091168152602090f35b3461004d57602036600319011261004d576004356001600160401b03811161004d57610a85903690600401612525565b610a8d613782565b805181016020019060200190610aa291612695565b610aab81612d26565b80515f80546001600160a01b03199081166001600160a01b03938416908117909255602084018051600180549093169416939093179055916040810180516001805463ffffffff60a01b191660a09290921b63ffffffff60a01b169190911790556060820190815160015490608085019163ffffffff60e01b835160e01b169163ffffffff60c01b9060c01b1690600160c01b6001900316171760015560a0840190815163ffffffff16936002549360c0870194855160201b6bffffffffffffffff000000001660e08901976001600160401b0360601b895160601b16926bffffffffffffffffffffffff60a01b16171717600255610100870196875160035561012001978851600160a01b60019003815116610be49060018060a01b03166bffffffffffffffffffffffff60a01b6004541617600455565b6020818101516005805460409485015163ffffffff60a01b60a091821b166001600160c01b03199092166001600160a01b03948516179190911790915583519d8e52935181168d830152935163ffffffff9081168d8401529451851660608d01529451841660808c015294518316908a015293516001600160401b0390811660c08a0152945190941660e0880152935161010087015293518051821661012087015292830151166101408501529101511661016082015233906101807f97d5cdf1d286faa22a5af584c7c53242d22dae02f82c8d38e19c5ae38ffcfe6c91a2005b3461004d575f36600319011261004d575f516020613db95f395f51905f52546001600160a01b03163314801580610e29575b610de45760ff60075416610d9f57604051610d118161247c565b6001602082019160408101935f85525f14610d97578183525b52600160ff19600754161760075551151561ff006007549160081b169061ff0019161760075551151562ff00006007549160101b169062ff00001916176007557f9e3a5e37224532dea67b89face185703738a228a6e8a23dee546960180d3be64602060405160018152a1005b5f8352610d2a565b60405162461bcd60e51b815260206004820152601760248201527f5661756c7420697320616c7265616479207061757365640000000000000000006044820152606490fd5b60405162461bcd60e51b815260206004820181905260248201527f4f6e6c79206f776e6572206f72207374726174656769737420616c6c6f7765646044820152606490fd5b506001546001600160a01b0316331415610cf7565b3461004d57602036600319011261004d57600154600435906001600160a01b038116330361116a5760075460ff8116908161115b575b506111075781156110c257610e8761279a565b90610ea96001600160401b0360085460401c166001600160401b034216612986565b6001600160401b038060c085015116911610611071576006549081841115610faf57612710610ede610ee69260e01c84612b49565b04918461287d565b11610f52577fe65c987b2e4668e09ba867026921588005b2b2063607a1e7e7d91683c8f91b7b91610f1e6101206020935b015161385b565b8060065560085467ffffffffffffffff60401b4260401b169067ffffffffffffffff60401b191617600855604051908152a1005b60405162461bcd60e51b815260206004820152602f60248201527f5261746520696e6372656173652065786365656473206d6178696d756d20616c60448201526e1b1bddd959081a5b98dc995b595b9d608a1b6064820152608490fd5b50808310610fe9575b507fe65c987b2e4668e09ba867026921588005b2b2063607a1e7e7d91683c8f91b7b91610f1e610120602093610f17565b6110098361271061100263ffffffff6002541685612b49565b049261287d565b116110145782610fb8565b60405162461bcd60e51b815260206004820152602f60248201527f526174652064656372656173652065786365656473206d6178696d756d20616c60448201526e1b1bddd95908191958dc995b595b9d608a1b6064820152608490fd5b60405162461bcd60e51b8152602060048201526024808201527f4d696e696d756d2072617465207570646174652064656c6179206e6f742070616044820152631cdcd95960e21b6064820152608490fd5b60405162461bcd60e51b815260206004820152601e60248201527f526564656d7074696f6e20726174652063616e6e6f74206265207a65726f00006044820152606490fd5b60405162461bcd60e51b815260206004820152602660248201527f5661756c7420697320706175736564206279206f776e6572206f7220737472616044820152651d1959da5cdd60d21b6064820152608490fd5b60ff915060101c161583610e74565b60405162461bcd60e51b815260206004820152601760248201527f4f6e6c79207374726174656769737420616c6c6f7765640000000000000000006044820152606490fd5b3461004d575f36600319011261004d5761018060018060a01b035f54166112af6001546002546001600160401b0360035491604051936111ee8561247c565b60018060a01b0360045416855263ffffffff60055460018060a01b038116602088015260a01c16604086015260405196875260018060a01b038116602088015263ffffffff8160a01c16604088015263ffffffff8160c01c16606088015260e01c608087015263ffffffff811660a0870152818160201c1660c087015260601c1660e085015261010084015261012083019063ffffffff6040809260018060a01b03815116855260018060a01b036020820151166020860152015116910152565bf35b3461004d575f36600319011261004d576112c9613782565b5f516020613db95f395f51905f5280546001600160a01b031981169091555f906001600160a01b03167f8be0079c531659141344cd1fd0a4f28419497f9722a3daafe3b4186f6b6457e08280a3005b3461004d57604036600319011261004d57611331612466565b335f525f516020613e195f395f51905f5260205260ff60405f2054161580611378575b6108255760ff6007541661067f5761080c60209161137061317a565b600435612a9a565b507f6aa30f72c819d6ffdc11d4f73f6dbad58c3fe2ea745f3548ccd5eb0e816f9ff9547f6aa30f72c819d6ffdc11d4f73f6dbad58c3fe2ea745f3548ccd5eb0e816f9ffa5460405163032c91b160e31b81526001600160a01b0391821660048201523360248201529160209183916044918391165afa9081156108ee575f91611403575b5015611354565b61141c915060203d6020116108e7576108d981836124b3565b826113fc565b3461004d57602036600319011261004d5760406114406004356129ce565b82519182526020820152f35b3461004d575f36600319011261004d576020600654604051908152f35b3461004d575f36600319011261004d577f00000000000000000000000000000000000000000000000000000000000000006001600160a01b031630036114c05760206040515f516020613df95f395f51905f528152f35b63703e46dd60e11b5f5260045ffd5b604036600319011261004d576114e3612450565b6024356001600160401b03811161004d57611502903690600401612525565b6001600160a01b037f00000000000000000000000000000000000000000000000000000000000000001630811490811561167a575b506114c057611544613782565b6040516352d1902d60e01b81526001600160a01b0383169290602081600481875afa5f9181611646575b506115865783634c9c8ce360e01b5f5260045260245ffd5b805f516020613df95f395f51905f528592036116345750813b15611622575f516020613df95f395f51905f5280546001600160a01b031916821790557fbc7cd75a20ee27fd9adebab32041f755214dbc6bffa90cc0225b39da2e5c2d3b5f80a281511561160a575f808360206102af95519101845af4611604613bf8565b91613cfa565b50503461161357005b63b398979f60e01b5f5260045ffd5b634c9c8ce360e01b5f5260045260245ffd5b632a87526960e21b5f5260045260245ffd5b9091506020813d602011611672575b81611662602093836124b3565b8101031261004d5751908561156e565b3d9150611655565b5f516020613df95f395f51905f52546001600160a01b03161415905083611537565b612422565b3461004d57604036600319011261004d576116ba612450565b6116c2612466565b906116cb613782565b7f6aa30f72c819d6ffdc11d4f73f6dbad58c3fe2ea745f3548ccd5eb0e816f9ff980546001600160a01b039283166001600160a01b031991821681179092557f6aa30f72c819d6ffdc11d4f73f6dbad58c3fe2ea745f3548ccd5eb0e816f9ffa8054949093169316831790915560408051918252602082019290925233917fee19b73d230309169ab43676c60f70d5bfc2042eb996b3269a04b7471673039391a2005b3461004d57602036600319011261004d57611787612450565b5060206103206129a6565b3461004d575f36600319011261004d575f516020613db95f395f51905f52546001600160a01b031633141580806119a1575b610de457604051906117d58261247c565b6007549160ff83161515815260ff6040818560081c16151592836020820152019360101c16151583528061199a575b6119435781511515908161193b575b506118df57511515806118a5575b611855575f6007557f9e3a5e37224532dea67b89face185703738a228a6e8a23dee546960180d3be6460206040515f8152a1005b60405162461bcd60e51b815260206004820152602260248201527f43616e6e6f7420756e7061757365207768696c652072617465206973207374616044820152616c6560f01b6064820152608490fd5b506118c76001600160401b0360085460401c166001600160401b034216612986565b6001600160401b038060025460601c16911611611821565b60405162461bcd60e51b815260206004820152602e60248201527f4f6e6c79206f776e65722063616e20756e70617573652069662070617573656460448201526d206279207374616c65207261746560901b6064820152608490fd5b905082611813565b60405162461bcd60e51b815260206004820152602960248201527f4f6e6c79206f776e65722063616e20756e70617573652069662070617573656460448201526810313c9037bbb732b960b91b6064820152608490fd5b5080611804565b506001546001600160a01b03163314156117c4565b3461004d575f36600319011261004d575f516020613e395f395f51905f52546040516001600160a01b039091168152602090f35b3461004d575f36600319011261004d576020611a04612966565b60ff60405191168152f35b3461004d575f36600319011261004d57606060075460ff6040519181811615158352818160081c161515602084015260101c1615156040820152f35b3461004d57602036600319011261004d57602061032060043561294b565b3461004d57606036600319011261004d57610637611a85612450565b611a8d612466565b60443591611a9c833383613601565b61369e565b3461004d57611aaf36612543565b91611ab861317a565b60ff6007541661067f5761066c93612897565b3461004d575f36600319011261004d5760206001600160401b0360085460401c16604051908152f35b3461004d57602036600319011261004d57602061032060043561285c565b3461004d575f36600319011261004d5760205f516020613dd95f395f51905f5254604051908152f35b3461004d5760c036600319011261004d57611b54612450565b6024356001600160401b03811161004d57611b73903690600401612525565b6044356001600160a01b038116919082900361004d576064356001600160401b03811161004d57611ba8903690600401612525565b926084356001600160401b03811161004d57611bc8903690600401612525565b9260a435935f516020613e795f395f51905f52549560ff8760401c1615966001600160401b03811680159081612255575b600114908161224b575b159081612242575b506122335767ffffffffffffffff1981166001175f516020613e795f395f51905f525587612207575b50611c3d6139f7565b611c456139f7565b8051906001600160401b0382116120f0578190611c6f5f516020613d595f395f51905f52546125a9565b601f811161218d575b50602090601f831160011461210f575f92612104575b50508160011b915f199060031b1c1916175f516020613d595f395f51905f52555b8051906001600160401b0382116120f057611cd75f516020613d995f395f51905f52546125a9565b601f8111612081575b50602090601f8311600114611fee5794611d9d63ffffffff956040958561012096611dd596611ecc9b5f92611fe3575b50508160011b915f199060031b1c1916175f516020613d995f395f51905f52555b611d396139f7565b611d416139f7565b611d4a81613c27565b9015611fdb575b5f516020613e395f395f51905f52549060ff60a01b9060a01b16906affffffffffffffffffffff60a81b1617175f516020613e395f395f51905f5255611d956139f7565b6102aa6139f7565b611da56139f7565b611dad6139f7565b60015f516020613e595f395f51905f5255611dc66139f7565b60208082518301019101612695565b80515f80546001600160a01b039283166001600160a01b0319918216179091556020808401518685015160608087015160808801518b1660e090811b918c1660c090811b958916948d1660a090811b63ffffffff60a01b9081169690961796909617929092176001558489015160028054938b0151928b015167ffffffffffffffff60601b951b949094166bffffffffffffffff0000000092881b92909216908d1692881692909217919091171790556101008601516003559590940151805160048054918616919094161790925581015160058054929096015192166001600160c01b0319909116179416901b16919091179055565b611edc611ed761279a565b612d26565b60ff611ee6612966565b16604d81116104c057600a0a600b558015611f8657600655600880546fffffffffffffffff000000000000000019164260401b67ffffffffffffffff60401b16179055611f2f57005b68ff0000000000000000195f516020613e795f395f51905f5254165f516020613e795f395f51905f52557fc7f505b2f371ae2175ee4913f4499e1f2633a7b5936321eed1cdaeb6115181d2602060405160018152a1005b60405162461bcd60e51b815260206004820152602760248201527f5374617274696e6720726564656d7074696f6e20726174652063616e6e6f74206044820152666265207a65726f60c81b6064820152608490fd5b506012611d51565b015190508d80611d10565b90601f198316915f516020613d995f395f51905f525f52815f20925f5b818110612069575095604095600186611dd596611ecc9b96611d9d966101209a63ffffffff9d10612051575b505050811b015f516020613d995f395f51905f5255611d31565b01515f1960f88460031b161c191690558d8080612037565b9293602060018192878601518155019501930161200b565b5f516020613d995f395f51905f525f527f46a2803e59a4de4e7a4c574b1243f25977ac4c77d5a1a4a609b5394cebb4a2aa601f840160051c810191602085106120e6575b601f0160051c01905b8181106120db5750611ce0565b5f81556001016120ce565b90915081906120c5565b634e487b7160e01b5f52604160045260245ffd5b015190508880611c8e565b5f516020613d595f395f51905f525f9081528281209350601f198516905b818110612175575090846001959493921061215d575b505050811b015f516020613d595f395f51905f5255611caf565b01515f1960f88460031b161c19169055888080612143565b9293602060018192878601518155019501930161212d565b5f516020613d595f395f51905f525f529091507f2ae08a8e29253f69ac5d979a101956ab8f8d9d7ded63fa7a83b16fc47648eab0601f840160051c810191602085106121fd575b90601f859493920160051c01905b8181106121ef5750611c78565b5f81558493506001016121e2565b90915081906121d4565b68ffffffffffffffffff191668010000000000000001175f516020613e795f395f51905f525587611c34565b63f92ee8a960e01b5f5260045ffd5b90501589611c0b565b303b159150611c03565b899150611bf9565b3461004d57602036600319011261004d576020610320600b546006549060043561313e565b3461004d57604036600319011261004d5761229b612450565b602435903315612314576001600160a01b0316908115612301576122be33612a4a565b825f526020528060405f20556040519081527f8c5be1e5ebec7d5bd14f71427d1e84f3dd0314c0f7b2291e5b200ac8c7c3b92560203392a3602060405160018152f35b634a1406b160e11b5f525f60045260245ffd5b63e602df0560e01b5f525f60045260245ffd5b3461004d575f36600319011261004d576040515f5f516020613d595f395f51905f5254612353816125a9565b8084529060018116908115610788575060011461237a576105c48361070a818503826124b3565b5f516020613d595f395f51905f525f9081527f2ae08a8e29253f69ac5d979a101956ab8f8d9d7ded63fa7a83b16fc47648eab0939250905b8082106123ca5750909150810160200161070a6106fa565b9192600181602092548385880101520191019092916123b2565b3461004d575f36600319011261004d57602061032061263e565b805180835260209291819084018484015e5f828201840152601f01601f1916010190565b3461004d57602036600319011261004d57612445600654600b5490600435613a22565b604051908152602090f35b600435906001600160a01b038216820361004d57565b602435906001600160a01b038216820361004d57565b606081019081106001600160401b038211176120f057604052565b61014081019081106001600160401b038211176120f057604052565b90601f801991011681019081106001600160401b038211176120f057604052565b6001600160401b0381116120f057601f01601f191660200190565b9291926124fb826124d4565b9161250960405193846124b3565b82948184528183011161004d578281602093845f960137010152565b9080601f8301121561004d57816020612540933591016124ef565b90565b606060031982011261004d57600435916024356001600160401b03811161004d578260238201121561004d578060040135926001600160401b03841161004d576024848301011161004d5760240191906044356001600160a01b038116810361004d5790565b90600182811c921680156125d7575b60208310146125c357565b634e487b7160e01b5f52602260045260245ffd5b91607f16916125b8565b606090600319011261004d57600435906024356001600160a01b038116810361004d57906044356001600160a01b038116810361004d5790565b3461004d57602036600319011261004d57612445600b5460065490600435613a22565b6125405f516020613dd95f395f51905f5254600654600b5491613a22565b51906001600160a01b038216820361004d57565b519063ffffffff8216820361004d57565b51906001600160401b038216820361004d57565b80910390610180821261004d57604051916126af83612497565b8151906001600160a01b038216820361004d5760609184526126d36020840161265c565b60208501526126e460408401612670565b60408501526126f4828401612670565b8285015261270460808401612670565b608085015261271560a08401612670565b60a085015261272660c08401612681565b60c085015261273760e08401612681565b60e085015261010083015161010085015261011f19011261004d5761278c610160604051926127658461247c565b612772610120820161265c565b8452612781610140820161265c565b602085015201612670565b604082015261012082015290565b604051906127a782612497565b8160018060a01b035f5416815260015460018060a01b038116602083015263ffffffff8160a01c16604083015263ffffffff8160c01c16606083015260e01c60808201526001600160401b0360025463ffffffff811660a0840152818160201c1660c084015260601c1660e08201526003546101008201526101206040519161282f8361247c565b6004546001600160a01b039081168452600554908116602085015260a01c63ffffffff1660408401520152565b63ffffffff60015460c01c168015612877576125409161315e565b50505f90565b919082039182116104c057565b919082018092116104c057565b939291906128a36131b2565b612944576128b385838386613263565b6128bc83612c86565b94858111612920576129099495506128d38161285c565b906128fc6128f66128e4848461287d565b92600b5491829160065493849161313e565b9361313e565b918061290b575b50613367565b565b6129179060095461288a565b6009555f612903565b93505050633fa733bb60e21b5f5260018060a01b031660045260245260445260645ffd5b5050509050565b63ffffffff60015460a01c168015612877576125409161315e565b60ff5f516020613e395f395f51905f525460a01c1660ff81116104c05790565b906001600160401b03809116911603906001600160401b0382116104c057565b60035480156129c8576129b761263e565b81811015612877576125409161287d565b505f1990565b6129de90600654600b549161313e565b9063ffffffff60015460a01c168015612a4557806127100361271081116104c057612a0c8161271086613a22565b9161271014612a315761254091612a2a91612710860915159061288a565b928361287d565b634e487b7160e01b5f52601260045260245ffd5b505f90565b6001600160a01b03165f9081527f52c63247e1f47db19d5ce0460030c497f067ca4cebf71ba98eeadabe20bace016020526040902090565b9081602091031261004d5751801515810361004d5790565b612aa26131b2565b61287757612aae6129a6565b808211612b025750612ae0612ac28261294b565b612acc818461287d565b9080612aed575b50600b5460065491613a22565b91612540918391336137b5565b612af99060095461288a565b6009555f612ad3565b91633c8097d960e11b5f5260018060a01b031660045260245260445260645ffd5b6001600160a01b03165f9081525f516020613d795f395f51905f52602052604090205490565b818102929181159184041417156104c057565b612b646131b2565b61287757612b70612c53565b808211612baa575080612b85612540926129ce565b93848295612b95575b50336137b5565b612ba19060095461288a565b6009555f612b8e565b9163284ff66760e01b5f5260018060a01b031660045260245260445260645ffd5b929190612bd66131b2565b612c4d57612be684838386613263565b612bef83612b23565b808511612c2b575060065493600b5490612c0a828783613a22565b91612909966128fc91612c26612c1f8661285c565b809661287d565b61313e565b8484632e52afbb60e21b5f5260018060a01b031660045260245260445260645ffd5b50505050565b60035480156129c857612c6461263e565b90808210156128775761254091612c7a9161287d565b600b5460065491613a22565b60018060a01b03165f525f516020613d795f395f51905f5260205261254060405f2054600654600b5491613a22565b6001600160a01b03168015612d13575f516020613db95f395f51905f5280546001600160a01b0319811683179091556001600160a01b03167f8be0079c531659141344cd1fd0a4f28419497f9722a3daafe3b4186f6b6457e05f80a3565b631e4fbdf760e01b5f525f60045260245ffd5b80516001600160a01b0316156130ea5760208101516001600160a01b03161561309b5761271063ffffffff604083015116116130565761271063ffffffff606083015116116130115761271063ffffffff60a08301511611612fbe5760e081016001600160401b0381511615612f6d576001600160401b038060c08401511691511610612f02576101200161271063ffffffff6040835101511611612e97578051602001516001600160a01b031615612e425751516001600160a01b031615612deb57565b60405162461bcd60e51b815260206004820152602960248201527f53747261746567697374206163636f756e742063616e6e6f74206265207a65726044820152686f206164647265737360b81b6064820152608490fd5b60405162461bcd60e51b815260206004820152602760248201527f506c6174666f726d206163636f756e742063616e6e6f74206265207a65726f206044820152666164647265737360c81b6064820152608490fd5b60405162461bcd60e51b815260206004820152603c60248201527f53747261746567697374206163636f756e74206665652064697374726962757460448201527f696f6e20726174696f2063616e6e6f74206578636565642031303025000000006064820152608490fd5b60405162461bcd60e51b815260206004820152603760248201527f4d696e696d756d207570646174652064656c61792063616e6e6f74206578636560448201527f6564206d6178696d756d207570646174652064656c61790000000000000000006064820152608490fd5b60405162461bcd60e51b8152602060048201526024808201527f4d61782072617465207570646174652064656c61792063616e6e6f74206265206044820152637a65726f60e01b6064820152608490fd5b60405162461bcd60e51b815260206004820152602560248201527f4d617820726174652064656372656d656e742063616e6e6f7420657863656564604482015264203130302560d81b6064820152608490fd5b60405162461bcd60e51b815260206004820152601f60248201527f5769746864726177206665652063616e6e6f74206578636565642031303025006044820152606490fd5b60405162461bcd60e51b815260206004820152601e60248201527f4465706f736974206665652063616e6e6f7420657863656564203130302500006044820152606490fd5b60405162461bcd60e51b815260206004820152602160248201527f537472617465676973742063616e6e6f74206265207a65726f206164647265736044820152607360f81b6064820152608490fd5b60405162461bcd60e51b815260206004820152602660248201527f4465706f736974206163636f756e742063616e6e6f74206265207a65726f206160448201526564647265737360d01b6064820152608490fd5b9161314a818385613a22565b918115612a3157612540930915159061288a565b61271061254092613170828285613a22565b920915159061288a565b60025f516020613e595f395f51905f5254146131a35760025f516020613e595f395f51905f5255565b633ee5aeb560e01b5f5260045ffd5b6001600160401b0342166001600160401b0360085460401c16906131d68282612986565b6001600160401b038060025460601c169116116131f35750505f90565b7fa23eaefe5c1780165b918668e0e10213a317fdab62f9a2fda3efd75a66de1ef0916040916201000162ff00ff1960075416176007557f9e3a5e37224532dea67b89face185703738a228a6e8a23dee546960180d3be646020845160018152a182519182526020820152a1600190565b6001600160a01b031615905061331357156132ce571561327f57565b60405162461bcd60e51b815260206004820152602160248201527f416d6f756e7420746f2077697468647261772063616e6e6f74206265207a65726044820152606f60f81b6064820152608490fd5b60405162461bcd60e51b815260206004820152601860248201527f52656365697665722063616e6e6f7420626520656d70747900000000000000006044820152606490fd5b60405162461bcd60e51b815260206004820152602660248201527f4f776e6572206f66207368617265732063616e6e6f74206265207a65726f206160448201526564647265737360d01b6064820152608490fd5b6001600160a01b038516949192916133879190338790036135f157613ac0565b6001600160401b036008541660065460405160a08101918183106001600160401b038411176120f05760039260405283825260208201908882526040830190815260608301918783526133db368a896124ef565b608085019081525f968752600a6020526040968790209451855492516001600160e01b03199093166001600160401b03918216179290971b68010000000000000000600160e01b03169190911784559051600184015590516002830155518051929091019282116120f05761345083546125a9565b601f81116135ac575b50602090601f8311600114613526577f34c29e8bdf5793b0f63f12d98c77ae4c94d65ed48423c83059e7c34575f68d3a949392915f918361351b575b50508160011b915f199060031b1c19161790555b6080600854956001600160401b03871695869581604051958694855260606020860152816060860152858501375f8383018501526040830152601f01601f19168101030190a26001600160401b0381146104c05760016001600160401b03910116906001600160401b03191617600855565b015190505f80613495565b90601f19831691845f52815f20925f5b81811061359457509160019391857f34c29e8bdf5793b0f63f12d98c77ae4c94d65ed48423c83059e7c34575f68d3a989796941061357c575b505050811b0190556134a9565b01515f1960f88460031b161c191690555f808061356f565b92936020600181928786015181550195019301613536565b835f5260205f20601f840160051c810191602085106135e7575b601f0160051c01905b8181106135dc5750613459565b5f81556001016135cf565b90915081906135c6565b6135fc823383613601565b613ac0565b919061360c83612a4a565b60018060a01b0382165f5260205260405f2054925f19841061362e5750505050565b82841061367b576001600160a01b03811615612314576001600160a01b038216156123015761365c90612a4a565b9060018060a01b03165f5260205260405f20910390555f808080612c4d565b508290637dc7a0d960e11b5f5260018060a01b031660045260245260445260645ffd5b6001600160a01b031690811561376f576001600160a01b031691821561375c57815f525f516020613d795f395f51905f5260205260405f205481811061374357817fddf252ad1be2c89b69c2b068fc378daa952ba7f163c4a11628f55a4df523b3ef92602092855f525f516020613d795f395f51905f5284520360405f2055845f525f516020613d795f395f51905f52825260405f20818154019055604051908152a3565b8263391434e360e21b5f5260045260245260445260645ffd5b63ec442f0560e01b5f525f60045260245ffd5b634b637e8f60e11b5f525f60045260245ffd5b5f516020613db95f395f51905f52546001600160a01b031633036137a257565b63118cdaa760e01b5f523360045260245ffd5b5f516020613e395f395f51905f52545f54604080516323b872dd60e01b60208201526001600160a01b0394851660248201819052928516604482015260648082018890528152959691957fdcbc1c05240f31ff3ad067ef1ee35ce4997762752e3a095284754544f4c709d7959194919361383a92166138356084836124b3565b613ca2565b6138448183613b76565b825195865260208601526001600160a01b031693a3565b60095490811561393a5761387c61271063ffffffff60408401511684613a22565b6138898161389b9461287d565b90600b54938491600654928391613a22565b936138a592613a22565b9160407ff227c93b6b816f85ef75ee32431495d61932665acd4193a40431a42f1502701a915f6009558061391f575b84613901575b83516020948501518351928352948201959095526001600160a01b039384169490931692a3565b602084015161391a9086906001600160a01b0316613b76565b6138da565b83516139359082906001600160a01b0316613b76565b6138d4565b5050565b6001600160a01b03808416959294908216937ffbde797d201c681b91056529119e0b02407c7bb96a4a2c75c01fc9667232c8db93604093909161398e91839190828b8a036139e6575b5050613ac0565b5f516020613e395f395f51905f5254835163a9059cbb60e01b60208201526001600160a01b039788166024820181905260448083018690528252976139d992166138356064836124b3565b82519182526020820152a4565b6139f09183613601565b5f82613987565b60ff5f516020613e795f395f51905f525460401c1615613a1357565b631afcd79f60e31b5f5260045ffd5b91818302915f1981850993838086109503948086039514613ab25784831115613a9a5790829109815f0382168092046002816003021880820260020302808202600203028082026002030280820260020302808202600203028091026002030293600183805f03040190848311900302920304170290565b82634e487b715f52156003026011186020526024601cfd5b505091508115612a31570490565b9091906001600160a01b0316801561376f57805f525f516020613d795f395f51905f5260205260405f2054838110613b5c576020845f94957fddf252ad1be2c89b69c2b068fc378daa952ba7f163c4a11628f55a4df523b3ef938587525f516020613d795f395f51905f528452036040862055805f516020613dd95f395f51905f5254035f516020613dd95f395f51905f5255604051908152a3565b915063391434e360e21b5f5260045260245260445260645ffd5b6001600160a01b031690811561375c577fddf252ad1be2c89b69c2b068fc378daa952ba7f163c4a11628f55a4df523b3ef602082613bc35f945f516020613dd95f395f51905f525461288a565b5f516020613dd95f395f51905f52558484525f516020613d795f395f51905f52825260408420818154019055604051908152a3565b3d15613c22573d90613c09826124d4565b91613c1760405193846124b3565b82523d5f602084013e565b606090565b5f8091604051602081019063313ce56760e01b825260048152613c4b6024826124b3565b51916001600160a01b03165afa613c60613bf8565b9080613c96575b613c73575b505f905f90565b60208180518101031261004d576020015160ff8111613c6c579060ff6001921690565b50602081511015613c67565b905f602091828151910182855af1156108ee575f513d613cf157506001600160a01b0381163b155b613cd15750565b635274afe760e01b5f9081526001600160a01b0391909116600452602490fd5b60011415613cca565b90613d1e5750805115613d0f57805190602001fd5b63d6bda27560e01b5f5260045ffd5b81511580613d4f575b613d2f575090565b639996b31560e01b5f9081526001600160a01b0391909116600452602490fd5b50803b15613d2756fe52c63247e1f47db19d5ce0460030c497f067ca4cebf71ba98eeadabe20bace0352c63247e1f47db19d5ce0460030c497f067ca4cebf71ba98eeadabe20bace0052c63247e1f47db19d5ce0460030c497f067ca4cebf71ba98eeadabe20bace049016d09d72d40fdae2fd8ceac6b6234c7706214fd39c1cd1e609a0528c19930052c63247e1f47db19d5ce0460030c497f067ca4cebf71ba98eeadabe20bace02360894a13ba1a3210667c828492db98dca3e2076cc3735a920a3ca505d382bbc100924d8e5ab1df33616bfd25eded8b01d3d68d2ade2d07beeff707eff2442770773e532dfede91f04b12a73d3d2acd361424f41f76b4fb79f090161e36b4e009b779b17422d0df92223018b32b4d1fa46e071723d6817e2486d003becc55f00f0c57e16840df040f15088dc2f81fe391c3923bec73e23a9662efc9c229c6a00a26469706673582212207d0eef93d3e4efafc40383e1d9dc5640775ba08e922a8d13f3c6e6fbb2daa52264736f6c634300081e0033f0c57e16840df040f15088dc2f81fe391c3923bec73e23a9662efc9c229c6a00",
        "linkReferences": {}
    },
    "methodIdentifiers": {
        "UPGRADE_INTERFACE_VERSION()": "ad3cb1cc",
        "allowance(address,address)": "dd62ed3e",
        "approve(address,uint256)": "095ea7b3",
        "asset()": "38d52e0f",
        "balanceOf(address)": "70a08231",
        "calculateDepositFee(uint256)": "247d284b",
        "calculateMintFee(uint256)": "5c095e54",
        "calculateWithdrawalFee(uint256)": "18e1b3bb",
        "config()": "79502c55",
        "convertToAssets(uint256)": "07a2d13a",
        "convertToShares(uint256)": "c6e6f592",
        "currentWithdrawRequestId()": "d083b2ee",
        "decimals()": "313ce567",
        "deposit(uint256,address)": "6e553f65",
        "feesAccruedInAsset()": "cd1da35c",
        "initialize(address,bytes,address,string,string,uint256)": "0e5e1e31",
        "lastRateUpdateTimestamp()": "18fe961b",
        "maxDeposit(address)": "402d267d",
        "maxMint(address)": "c63d75b6",
        "maxRedeem(address)": "d905777e",
        "maxWithdraw(address)": "ce96cb77",
        "mint(uint256,address)": "94bf804d",
        "name()": "06fdde03",
        "owner()": "8da5cb5b",
        "pause()": "8456cb59",
        "previewDeposit(uint256)": "ef8b30f7",
        "previewMint(uint256)": "b3d7f6b9",
        "previewRedeem(uint256)": "4cdad506",
        "previewWithdraw(uint256)": "0a28a477",
        "proxiableUUID()": "52d1902d",
        "redeem(uint256,address,address)": "ba087652",
        "redeem(uint256,string,address)": "99646d1c",
        "redemptionRate()": "540385a3",
        "renounceOwnership()": "715018a6",
        "setUserAllowed(address,bool)": "d1a81a8d",
        "symbol()": "95d89b41",
        "totalAssets()": "01e1d114",
        "totalSupply()": "18160ddd",
        "transfer(address,uint256)": "a9059cbb",
        "transferFrom(address,address,uint256)": "23b872dd",
        "transferOwnership(address)": "f2fde38b",
        "unpause()": "3f4ba83a",
        "update(uint256)": "82ab890a",
        "updateConfig(bytes)": "8cc6acce",
        "updateZkMeConfig(address,address)": "49d0411c",
        "upgradeToAndCall(address,bytes)": "4f1ef286",
        "userAllowed(address)": "ac38709a",
        "vaultState()": "2728f333",
        "withdraw(uint256,address,address)": "b460af94",
        "withdraw(uint256,string,address)": "1bd9c31a",
        "withdrawRequests(uint64)": "94ba2b8d"
    },
    "id": 62
}